:10000000F8610020D5760000D1760000D17600009E
:1000100000000000000000000000000000000000E0
:10002000000000000000000000000000D176000089
:100030000000000000000000D1760000D176000032
:10004000D1760000D17600000D520000C94D0000AD
:10005000D1760000D1760000D1760000D176000084
:10006000E55C0000F55C0000055D0000155D00002A
:10007000255D0000355D0000D1760000D1760000DE
:10008000D1760000A5720000B5720000D1760000A4
:10009000D1760000C5720000D1760000D176000054
:1000A000D1760000D1760000214D0000D17600000D
:1000B0000000000000000000000000000000000040
:1000C0000000000000000000000000000000000030
:1000D0000000000000000000000000000000000020
:1000E0000000000000000000000000000000000010
:1044000010B5064C2378002B07D1054B002B02D0AA
:10441000044800E000BF0123237010BD900000207D
:104420000000000058B20100084B10B5002B03D06B
:104430000749084800E000BF07480368002B00D187
:1044400010BD064B002BFBD09847F9E70000000099
:104450009400002058B2010058B201000000000092
:10446000F0B583B06B46DF1DD8710B4E0B4C0122AB
:10447000310020000A4DA84780225200094B5A61A2
:10448000FF3A39002000084B9847002231002000F5
:10449000A84703B0F0BDC046142400200824002023
:1044A00091600000002800408561000030B591B0A7
:1044B000594B9847594C1723237000236370A370FE
:1044C00002A901224A708B700A701720544B98473A
:1044D0002278D1090023002904D15309DB01514975
:1044E0008C4663441F2111400122100088409861CE
:1044F00002AC227000230393049323746374A274A8
:10450000E27423752332A354183A002108A8464BBD
:10451000984780235B02E360444BA362444BE36211
:10452000444B2363444B6363444BA361444D2200DB
:1045300044492800444B98472A68D369002BFCD192
:10454000136802210B43136001AC01236370002246
:10455000A270237021000820314DA847210022209D
:10456000A8470020394B98473449394B9847830076
:10457000181840000422374B5A61002848D0364BA7
:10458000586000229A601900802252020B68134280
:10459000FCD004222F4B9A612F4B586000229A6066
:1045A0001900802252020B681342FCD00422294BCE
:1045B0009A61A820294CA0471F20A047D320A047DC
:1045C0000020A0474020A047A120A047C820A04726
:1045D000DA20A0470220A0478120A0478F20A047D3
:1045E000A420A047A620A047D520A0478020A04710
:1045F0008D20A0471420A047DB20A0474020A047E3
:10460000D920A047F120A047AF20A04711B030BD6E
:104610000422104B9A61C9E7AD4600001424002023
:1046200071510000002800406D830100030022004A
:1046300003001700030036000300370040420F005C
:104640000824002000040043455D0000D56F0000F1
:10465000F95001008028004010E000E061440000B3
:10466000F0B583B06B46DF1DD8710B4E0B4C0122A9
:10467000310020000A4DA84780225200094B9A6160
:10468000FF3A39002000084B9847002231002000F3
:10469000A84703B0F0BDC046142400200824002021
:1046A00091600000002800408561000070B5002086
:1046B000084B98470500084CFA218900A047074B92
:1046C000186007492800A047064B18600522064BD2
:1046D0001A6070BDD56F0000F95001000000002085
:1046E00040420F000400002010E000E030B5084B0D
:1046F0001C68084A002580214902013807D3002C94
:10470000FBD05460956013680B42FCD0F5E730BDD8
:104710000400002010E000E030B5084B1C68084A97
:10472000002580214902013807D3002CFBD05460BA
:10473000956013680B42FCD0F5E730BD0000002007
:1047400010E000E0014B18607047C046AC0000204C
:10475000024B1B68C001181842547047AC0000207F
:10476000024B1B68C0011818405C7047AC00002069
:10477000F8B5CE46474680B58418802C03DD8022EC
:104780005242121AD2B2002A37D0CD08EC00091BCF
:1047900001278F403900FFB2012B19D0002B30D0F8
:1047A000022B2AD10138C6B29219D4B2204B9946B5
:1047B000204B984621002800C8477840C2B2002309
:1047C00021002800C047013CE4B2B442F2D114E019
:1047D0000138C6B29219D4B2154B9946154B98467A
:1047E00021002800C8473843C2B200232100280016
:1047F000C047013CE4B2B442F2D10CBC90469946A9
:10480000F8BD0138C6B29219D4B2094B9946CF43CC
:10481000084B984621002800C8473840C2B2002300
:1048200021002800C047013CE4B2B442F2D1E4E7E1
:10483000954A00008D490000F0B583B000900192C8
:1048400008AA1778002B0DD00139CEB29B19DCB223
:10485000054D3B00019A21000098A847013CE4B2B5
:10486000B442F6D103B0F0BD71470000F0B5DE46AA
:1048700057464E464546E0B585B0040088461500CB
:104880009B465B7A5A46127A0021009129004046E5
:10489000284EB0475B461B78002B06D005B03CBCC9
:1048A00090469946A246AB46F0BD5B461A7AD308BD
:1048B000520700D001335A46527A92465A46977AA6
:1048C000E71B524657435F43BFB25B465B689C465B
:1048D000674402954346039320E06BB2002B0DDB47
:1048E0000134E4B26D00EDB2A6420DD04346E31AA6
:1048F0004A461A42F1D13D780137EEE7012202998A
:1049000020000D4B9847EBE7029B0133DBB202938B
:104910005346013BDBB29A46002BBFD05B461E7A62
:10492000002EF1D04644F6B2039C00250723994699
:10493000DCE7C046394800002D4A0000F0B5C64605
:1049400000B582B0040090461F000D00019109E0FF
:104950007A7A01324244D3B29846019D01342378D9
:10496000002B0DD020780A28F2D00D28F6D03B007D
:1049700042462900044EB0473B7AED18EDB2EDE710
:1049800002B004BC9046F0BD6D480000F8B50400CC
:104990000F001500002B03D10D4B9847A84215D0EE
:1049A0002A00390020000B4B98470F263440B020D6
:1049B0002043094CA0477806400F10231843A04716
:1049C00030003840A0472800044B9847F8BDC04647
:1049D000614700005147000061440000614600004B
:1049E000F8B50D480D4B98470D4B984740200D4B9F
:1049F0009847002500260C4F340001233200210087
:104A00002800B8470134E4B2802CF6D10135EDB26C
:104A1000042DF1D1F8BDC046B0000020454700008C
:104A2000AD440000614400008D490000F0B5C64669
:104A300000B50400150043B2002B01DB1F2902D989
:104A400004BC9046F0BDCF08FB00C91A01268E4079
:104A5000F3B29846010038000C4B98470200012D34
:104A600009D0002D0BD0022D0CD0002321003800DE
:104A7000074CA047E4E743460343DAB2F5E7B04307
:104A8000C2B2F2E743464340DAB2EEE761470000C4
:104A90008D49000010B5014B984710BD61470000DB
:104AA0000C4B1B68002B06D1EFF31083002B07D0B3
:104AB0000022094B1A70074A1368013313607047CC
:104AC00072B6BFF35F8F0022044B1A700132024BA3
:104AD0001A70F0E7B0020020B40200201400002099
:104AE000084B1A68013A1A601B68002B09D1064B63
:104AF0001B78002B05D00122044B1A70BFF35F8F87
:104B000062B67047B0020020B402002014000020FA
:104B1000F0B5C64600B582B001AC01256570002332
:104B20009846A370257021001320124EB047124FF3
:104B300080231B03BB61257021001220B047802316
:104B4000DB02BB61257021000D20B04780239B0153
:104B50007B61257021000920B04780239B007B6189
:104B600043462370657021001C20B04702B004BC8E
:104B70009046F0BD715100000028004001230370F1
:104B8000002343708370C37003710F2242718371DD
:104B9000C371037270470268136802210B431360EC
:104BA00070470323026853710268D3710268136867
:104BB00002218B431360704770B504000D00D37859
:104BC00003712160537843711379837113789B02C9
:104BD0009178C9020B43517809020B43D1788900BF
:104BE0000B43117949010B4391798903D079400333
:104BF0000143107A0003014352791204F0200003AC
:104C000002400A4313431E002B689B0701D42E6009
:104C100070BD2000034B98472E602000024B984740
:104C2000F6E7C046A34B0000974B000070B5054C5B
:104C3000E56980239B012B43E36101230B60024B59
:104C4000984770BD00040040B94B000070B543792F
:104C5000012B05D0002B10D0022B0DD1082500E030
:104C60000625002310C99A1C92000668B4466244C7
:104C700054600133AB42F5D370BD0425F1E7FFFF6B
:104C800010B50023026813720F4B426813400F4A9D
:104C900093420AD00379032B0ED00C001034036822
:104CA00004C99A638C42FAD110BD03680A689A63FA
:104CB00003684A689A63F7E78379023B012BECD8D3
:104CC00003680A689A63EFE7FF00FF000300010032
:104CD000002302681372104B426813400F4A93423C
:104CE0000AD00379032B0ED00A00103203689B6BA5
:104CF00008C18A42FAD1704703689B6B0B60036856
:104D00009B6B4B60F7E78379023B012BECD8036880
:104D10009B6B0B60EFE7C046FF00FF000300010044
:104D200010B50C4BDC79E4B2E30707D50A4B1B68DE
:104D3000002B0DD00121074AD1719847A30707D551
:104D4000054B1B68002B03D00221024AD171984702
:104D500010BDC04600340042B80200201723002ACC
:104D600001D0180070478B00064A9B58002B03D0D7
:104D7000834205D01D23F4E7890088500023F0E723
:104D80000023EEE7182400201723002901D0180083
:104D9000704700221F2800D8024A01238340136174
:104DA0000023F4E7002400401723002901D0180055
:104DB000704700221F2800D8024A01238340D36095
:104DC0000023F4E70024004070B50022104B1A7055
:104DD000002310491F25104E0D4C0AE00D4908E034
:104DE00023780133DBB223700F2B10D800211F2B47
:104DF000F4D9280018400122824048691042EFD0BF
:104E00004A619B009B59002BEAD09847E8E770BDA8
:104E1000172400200024004018240020064A13789C
:104E200002210B431370012053681942FCD15368CF
:104E30001842F9D17047C04600240040064A137852
:104E400002218B431370012053681942FCD153682F
:104E50001842F9D17047C0460024004010B5124AEC
:104E6000516980239B000B435361104A1378012141
:104E70000B4313700131012053681942FCD1536870
:104E80001842F9D1094A137810210B431370084BCB
:104E900019004031002204C38B42FCD10822054B8B
:104EA0001A60054B984710BD0004004000240040E4
:104EB0001824002000E100E01D4E000000230360E4
:104EC00043600122027283720132C27243727047E0
:104ED000F0B583B005000C001C4B984701A90023D6
:104EE0004B70CB7023790B70237A8B702078184B22
:104EF000984700211F2D00D8164907222A4092000A
:104F0000E77AA37A002B01D008231F43EB089B000C
:104F1000CB18D8690F269640B04397403A00024319
:104F2000DA61637A002B0BD18A690123AB40DB4342
:104F30001B041B0C13408B61074B984703B0F0BD5B
:104F40008A690123AB4013438B61F5E73D4E0000B6
:104F5000AD710000002400401D4E000030B504007B
:104F6000254A1088538843438B420BD280229201FA
:104F7000224BCB18934205D9214A1820214BCB183C
:104F800093420ED8204B5D688022D2022A435A6099
:104F90002022FF321A831B7DDB0703D41A4B5D608E
:104FA000052030BD452C22D8A300184AD3589F466F
:104FB000154B1B8BDB0503D5134B5D601020F0E711
:104FC00089084900104BD96103E0890849000E4B5C
:104FD000D961A520000204430B4B1C80190001225B
:104FE0000B7D1342FCD0084B5D600020D9E7064BD7
:104FF0005D601720D5E7C046C002002000C07FFFDB
:10500000FF1F00000000C0FF00400041849C010021
:10501000F8B52F4B1C885B886343834207D22D4E23
:1050200018252D4BC318B34206D8012600E00026F0
:10503000631E1825184201D02800F8BD013D944296
:10504000FAD3264B1B7D123DDB07F5D5244C234BB1
:105050001C801D0001242B7D2342FCD02024FF3422
:105060001E4B1C83002A2CD0012305009D430023E6
:10507000541EA44609E0CF187F783F023C432C80A1
:1050800002339BB202359A4204D9CC5C6345F2DB11
:10509000A4B2F4E70E4B1B790025002BCCD13F2A9C
:1050A000CAD8002E06D10022010004200D4B9847DB
:1050B0000500C1E7002201001C200A4B98470500AB
:1050C000BAE7034B1B790025002BEAD0B4E7C046B2
:1050D000C0020020FF1F00000000C0FF0040004190
:1050E00044A5FFFF5D4F000010B51B4A138852888E
:1050F0005A43824207D2194C182219494118A14239
:1051000007D8012100E000219B00013B1822184232
:1051100001D0100010BD134B1B7D133ADB07F8D5EF
:10512000104B2022FF321A8380084000D8610029EA
:105130000FD10D4A0B4B1A80190001220B7D13422F
:10514000FCD0084B1A8B1C200240501E824192005A
:10515000DFE7064AEEE7C046C0020020FF1F00005E
:105160000000C0FF0040004102A500001AA5000099
:1051700000B583B001AB80221A700A785A704A7861
:105180009A708A78DA701900014B984703B000BD15
:10519000AD71000003681869431E9841C0B27047A2
:1051A00070B504000668084D2000A8470028FBD110
:1051B0002379002B04D00020012B00D1B06970BDF1
:1051C000308B80B2FBE7C0469551000010B50268F5
:1051D0000A2910D0072911D980235B000C00083C54
:1051E000A340C024A40023401381C38E01228A401F
:1051F0009343C38610BD044B1381F6E701248C4012
:10520000FF2323401381F0E70080FFFFF8B5DE465F
:1052100057464E464546E0B52B4B1B689A461E68DE
:10522000DB8E5246928E1A409046B28973891340A3
:105230001AB2002A08DBFF271F402AD000240123CE
:105240009946FE339B4614E043465B0507D41F4B4B
:10525000B3813CBC90469946A246AB46F8BD534646
:105260001B6B9847F3E75B461D40B5810134082C62
:10527000EFD023004D46A5402F42F4D042462241B4
:1052800049461142EFD002339B0052469B58984743
:10529000E9E7DA050AD54346DB0503D480235B0042
:1052A000B381D6E753469B6A9847F7E79B05D0D56D
:1052B00043469B0503D480239B00B381C9E7534633
:1052C000DB6A9847F7E7C046582400200080FFFFBC
:1052D00001680722CB691A42FCD17047F0B5D64667
:1052E0004F464646C0B58AB007000E00140039602C
:1052F00008009C4B9847052800D12BE1050012358A
:10530000994AD169012383400B43D36109A9237BC7
:105310000B70EDB22800954B98472800944B9847A6
:10532000207B0021934B984733681C209B0705D5B1
:105330000AB01CBC90469946A246F0BD33681738A7
:10534000DB07F5D4142333603B6898461800854B7F
:1053500098470500802308AA137000235370012288
:1053600008A98A70CB70E069266A002800D1AEE0F7
:1053700008AB1870022308AA5370000CC0B21100C9
:105380007D4B9847002E00D1A6E008AB1E7002238B
:1053900008AA5370360CF0B21100774B9847A38AD5
:1053A000FB80E38A3B81237E8022002B04D1734B58
:1053B0009B789B07DB0FDA01A16823690B4313433A
:1053C0002422A25C002A02D08022D2051343A26AC2
:1053D00013432C22A25C002A03D180229204914222
:1053E00002D18022120513432D22A25C002A02D092
:1053F0008022120413432E22A25C002A02D08022B3
:10540000D20313434246126813434246136080237B
:105410005B0053601235E8B2594B98470790FA2366
:105420009B0022685A43914663689A46554DA847A7
:10543000009001914B465800A84702900391208E9E
:10544000A84704900591504F504A514B009801993C
:10545000B84702000B0004980599B8474D4E00224A
:105460004D4BB047049005914846A84702000B00F9
:1054700004980599B84702000B00484D009801991F
:10548000A847029A039BB0470022454BA847029ABF
:10549000039B444DA847444B9847050080239B0439
:1054A000A2689A421ED003004020FF2D00D93FE79A
:1054B00000240020FF251D40240625430004FF236F
:1054C0001B04184005434346DD60002030E70021FF
:1054D0004046364B98474BE701214046334B9847AF
:1054E000060052E7FA26B60053465E43009801993B
:1054F00002000B00274CA047009001913000214B87
:10550000984700222A4BB84702000B0000980199E7
:10551000244CA0470022224B204CA047224B984706
:10552000041E0CD031000798224B98470238001B0C
:105530002B00FF2D0CD8FF28BCD94020F8E67100C5
:10554000481E079B9C4660441A4B98470138EFE77A
:105550004020EDE6044A136A02210B43136218252A
:10556000D4E6C0463D5C000000040040B17000007D
:1055700041700000955A0000AD710000002000410C
:10558000D57000001D8001000574010095D626E845
:105590000B2E113E7D6501000000244005790100BD
:1055A0000000F03F9D6B0100317F0100E15A0000D7
:1055B00000000840F9500100F8B504000768084EE3
:1055C000B04725682000B04783232B752B762B68C6
:1055D000022293432B602000B04701233B60F8BDBB
:1055E000D152000003681A7E920707D502221A766C
:1055F0005B8B9B074120DB17184070475A8B520783
:1056000006D55968C02292020A435A601820F4E76E
:105610000020F2E730B50268002301240225117E44
:1056200021420BD1117E294206D101339BB201895F
:105630009942F4D8122002E0002000E0002030BDA2
:1056400010B5046862688023DB0213436360616203
:10565000024B98470123237610BDC0461556000023
:10566000F0B5DE4657464E464546E0B583B00600E7
:10567000894605684C882B681B01DB0F9A464B7ADC
:10568000002B2BD16B68584A13406B604B461B7A3A
:10569000002B27D14B461B885B004A46527A920367
:1056A0001343012213436B623000504B9847019023
:1056B0005346002B03D04B465B88012B3BD06B68D5
:1056C000494A13406B60019B002B3AD0019803B00C
:1056D0003CBC90469946A246AB46F0BD897A444B05
:1056E0009847CFE74B461B885B004A46527A9203A5
:1056F00013438022120213436B6230003B4B9847E6
:1057000001906B68384A13406B600028DED130008E
:10571000384B984701900028D8D14B461B881B0A6C
:10572000782213435B004A46527A920301210A43CE
:1057300013436B62B8E76A688023DB0213436B6034
:10574000C1E730002B4B984701900028BED1013CA7
:10575000A4B28046284B9B4615E0012C20D0300097
:10576000264B984743465F1CBFB22823EB5C4A4652
:1057700052684146535430001C4B9847013CA4B238
:10578000002815D1B8465C4514D06B8B9B0627D5F5
:10579000F37A002BE3D05346002BDED1002CDED170
:1057A0006A688023DB0213436B60013CA4B2EAE722
:1057B000B8460190B37A002B09D130000F4B9847BF
:1057C0002823EA5C4B465B6841465A547EE730002A
:1057D0000A4B98476A68C0239B0213436B60ECE74F
:1057E0004123019372E7C046FFFFFBFF15560000FF
:1057F00041560000E5550000FFFF0000D1520000B7
:10580000F0B5DE4657464E464546E0B583B0060045
:105810000F0005684C88324B98477B7A002B1DD1CE
:105820006B68304A13406B603B7A002B1BD03B887F
:105830005B007A7A920313438022120213436B6255
:105840003000294B98470190002813D0019803B0ED
:105850003CBC90469946A246AB46F0BDB97A3000B2
:10586000224B9847DCE73B885B007A7A920313432C
:105870006B62E5E730001E4B9847031E0190E5D1AF
:10588000A046002420339946154B9B46164B9A465A
:10589000444515D06B8B4A4613421DD03000D84783
:1058A0007B681A5D2823EA543000D047002806D1CF
:1058B0006B8B01345B07EBD51E23019300E0019055
:1058C000B37A002BC2D03000054B98476A68C023DA
:1058D0009B0213436B60B9E741230193B6E7C046CF
:1058E000D1520000FFFFFBFF15560000415600009B
:1058F000E555000010B501238372C372014B984730
:1059000010BDC0466156000010B5002383720133FC
:10591000C372014B984710BD01580000F0B5DE4638
:1059200057464E464546E0B587B08046049116007E
:105930001F000022002300218B463F24012021006C
:10594000009601975C4603944446059413E0202496
:10595000641A0500E540A84614E0009C019D121B56
:10596000AB415C464D462C43A346039C45462C4325
:105970000394013925D3202464420C19E7D405008F
:10598000A540A84604008C40A14692185B41140033
:105990001D00059E4F463E40B446049E47463E408D
:1059A000B246664657463E4303D0060026433200C1
:1059B0002B00009C019D9D42DBD8CED19442D8D8CB
:1059C000CBE7039B5846190007B03CBC904699466C
:1059D000A246AB46F0BD10B54908402300248142E1
:1059E00002D2180010BD1C00091A631C9BB2884229
:1059F000F9D94023FF2CF4D814800023F1E7FFFFEE
:105A0000F0B583B00F00160008AA117804004C43CB
:105A10004022BC4202D9100003B0F0BD002B14D1CB
:105A2000020008000021194CA04701003A000023A1
:105A30000020174CA04700220123121A8B41120CA0
:105A40001B041A4332800022E5E70022012BF9D122
:105A50000A00002300210D4CA04702000B00009219
:105A60000193380000210A4CA047050080239B01C8
:105A700040229842CFD8790FF800009A019BA047A6
:105A8000EA00821AD2B252032A43DBE7155501001D
:105A90001D59000010B582B004000E4B1B78002B7E
:105AA00007D0002905D10B4B5B78834210D01D2015
:105AB0000CE001A90C701120074B98471120074BEF
:105AC0009847044B5C7001221A70002002B010BD90
:105AD0000020FBE7C8020020B17000004170000008
:105AE0003C4B984232D00AD93B4B98424ED03B4B6C
:105AF000984255D03A4B984238D0002070478423C2
:105B0000DB0598420CD0374B9842F6D1012917D0CB
:105B1000002957D0022915D0032915D00020EDE720
:105B2000012907D000294BD0022905D0032905D02F
:105B30000020E3E72C48E1E72C48DFE72C48DDE7CD
:105B40002C48DBE72C48D9E72C48D7E7012907D0B8
:105B5000002939D0022905D0032905D00020CDE73E
:105B60002748CBE72748C9E72748C7E7012907D0D7
:105B700000292BD0022905D0032905D00020BDE73C
:105B80002248BBE72248B9E72248B7E7022903D0F9
:105B9000032903D00020B1E71F48AFE71F48ADE756
:105BA000012907D0002913D0022905D0032905D0E7
:105BB0000020A3E71A48A1E71A489FE71A489DE783
:105BC0001A489BE7032099E7194897E7194895E792
:105BD000194893E700080042001000420004004307
:105BE000000C004200040042030005000300060010
:105BF000030007000300010003001E0003001F0054
:105C00000300090003000A0003000B000300110059
:105C1000030012000300130003000E0003000F0036
:105C2000030017000300180003001900030004001C
:105C300003000800030010000300160030B587B011
:105C40000B4B6A4632CB32C232CB32C2009B83420C
:105C50000BD001239A0069465258824206D0013384
:105C6000062BF7D1002007B030BD0023D8B2FAE7E9
:105C70009C9D01007047FFFFF0B50A4B1B78002B7D
:105C80000CD1094F094E0A4D0024DE515A191460F7
:105C90000433182BF9D10122024B1A708000024BF9
:105CA000C150F0BDCA020020CC020020755C00008B
:105CB0005C24002000B583B008236A4613700133CA
:105CC0005370013393700133D37001331371013377
:105CD0005371034B98476B46185603B000BDC0463E
:105CE0003D5C000010B5024B1B680020984710BDBA
:105CF000CC02002010B5024B5B680120984710BD14
:105D0000CC02002010B5024B9B680220984710BDC2
:105D1000CC02002010B5024BDB680320984710BD71
:105D2000CC02002010B5024B1B690420984710BD1F
:105D3000CC02002010B5024B5B690520984710BDCE
:105D4000CC020020F0B5D6464F464646C0B58AB0D4
:105D500006000F00140031600B689B070AD40B6823
:105D60000520DB0700D4AFE00AB01CBC9046994682
:105D7000A246F0BD936A0593D36A0693136B07930B
:105D8000536B089300250AE03800B64B98470EE0A5
:105D90000F231840814530D10135042D31D0E9B2AF
:105DA000AB0002AA0C201218D0580028ECD0431CDB
:105DB000F2D001040B0C9946000CC3B29C460023A0
:105DC000020605D463465B09DB01A74A90464344BB
:105DD0001F2260460240981840300078824680209A
:105DE0005146C907D6D552089B1830331878C0B22F
:105DF0006346DB07CCD50009CCE7002333601C20C9
:105E0000B2E71120994B984722780025012A16D035
:105E10002178002927D13B68E27F1204A07F02434A
:105E20001C209A42A0D1A369A28B0430205C0028D8
:105E300001D040200243082003431D4314E004AA7C
:105E40000100A0698A4B984703001720002B00D05F
:105E50008AE73B7BDBB204AA127805309A4200D075
:105E600082E70C35D4E700226368A0680343E0684A
:105E700003432B43207C0243607C002801D0802018
:105E80000343A07C002802D0802080020243E07CF3
:105E9000002802D0802080000243207D002802D00C
:105EA000802080010243386802252B43834203D0BF
:105EB000002333601C2057E77B689342F8D171714F
:105EC000237CB37100204FE708006A4B98470528F0
:105ED00000D1BFE0030012336749CD69012282403F
:105EE0002A43CA6109A92425625D0A70DBB20193C5
:105EF0001800624B98470198614B9847605D0021FC
:105F0000604B98472378012B20D02378002B03D1B6
:105F10003B68082213433B603368984604AB8022F9
:105F20001A7000225A7001219970DA702378002BC0
:105F300001D104AB9A70A36A0593E36A0693236BBD
:105F40000793636B0893002705AD11E03B680C22B3
:105F500013433B60D9E74046424B98470DE004A904
:105F60000870000CC0B2484B98470137042F07D087
:105F7000F9B2BB0058590028EDD0431CEFD1F4E72B
:105F800023787371237CB371A37CF371237D337207
:105F9000002202ABDA802378012B14D02378002B67
:105FA00029D1A069A28B43465B6AE17F0904A57FE2
:105FB00029431943434659622023E35C002B1CD03C
:105FC00040231A4319E030682A4B98471230C0B278
:105FD000264B9847010002AB9A1DA069244B9847B5
:105FE00003001720002B00D0BEE602AB06331B785F
:105FF00042461373D2E7002200206368A1680B4376
:10600000E1680B430343217C0A43617C002903D1EF
:106010001E498978890701D580210B43A17C00297D
:1060200002D0802189020A43E17C002902D080212C
:1060300089000A43217D002902D0802189010A4379
:10604000414609680B4341460B604B681A434A605E
:10605000002089E6084A136A02210B4313621823C1
:1060600040E7C046E15A000000280040D57000001B
:10607000D75900003D5C000000040040B1700000F2
:1060800041700000955A0000AD71000000200041F1
:1060900010B544791523012C01D0180010BD047AE5
:1060A0000023002CF9D1002A58D04B78002B44D083
:1060B00003681B7EDB0710D40A78D109002300296E
:1060C00004D15309DB012E498C4663441F21114042
:1060D00001228A409A610523DFE70A78D409002368
:1060E000002C04D15309DB01254CA44663441F2432
:1060F00014400122A2405A6103681A7ED20701D5DA
:106100008A789A62C2790023002AC6D102680421E3
:10611000137E0B42FCD0117E00234907BDD5538B63
:106120005B0701D5042353838379012B02D0936A43
:106130000023B2E7936A0023AFE70A78D10900236E
:10614000002904D15309DB010D498C4663441F210A
:10615000114001228A405A6100239EE70A78D10942
:106160000023002904D15309DB0105498C4663440F
:106170001F21114001228A409A6100238DE7C04609
:1061800000280040F0B5DE4657464E464546E0B58D
:1061900083B01723002A07D1180003B03CBC9046F7
:1061A0009946A246AB46F0BD4379002B03D1036864
:1061B0001C7EA4070AD49346002401230225AC4682
:1061C0000235A846013A92B28A4623E002241C76A0
:1061D000F1E7357E61460D422ED1357E1D4200D15C
:1061E000C2E00668357E1D42FCD0671CBFB2514636
:1061F0000D5D8179012923D0ADB23C00377E1F426D
:1062000002D0ED05ED0DB562551EADB2C679002E7A
:106210001DD12A00594DAA4270D04579002DE0D1F8
:106220000668357E1D42D4D1554D377E1F42D0D1F0
:10623000013D002DF9D1CCE7022333760233ABE7E1
:106240000234A4B25146CF5D3F023D43D6E75146EA
:106250004579002D37D14B4D019112E00234A4B2A3
:106260004946019F795C0902009F0F431BE0013AF8
:1062700092B20668377E41460F421BD1013D002D88
:1062800018D0002AF5D00668377E1F42F1D0671C6F
:10629000B9B289460199095D009181790129DDD062
:1062A00069460F884C46317E1942E0D0FF05FF0D4C
:1062B000B762DCE70199357E67463D4218D1357EED
:1062C0004646354252D00668357E47463D42FBD0B1
:1062D000357E3D4207D0758B3D4200D0778385796E
:1062E000012D09D0B56A5D46013DADB2AB4669E707
:1062F0000223337602334FE7B56AF4E74379012B83
:106300000BD0002B34D1C279002A00D144E70424F9
:106310005B465D46002B19D13EE7016802220B7EE9
:106320001342FCD0002337E70B7E234222D00B7EA2
:10633000234207D04B8B234200D04C838379012B1F
:1063400010D08B6A013DADB2002D15D001680B7ED7
:106350002342E9D10A4B0A7E2242E5D1013B002BC0
:10636000F9D1E1E78B6AEDE7122315E7122313E772
:10637000002311E712230FE700230DE7FFFF0000C2
:106380001027000011270000F0B5DE4657464E46A4
:106390004546E0B591B005000C00160029600800E4
:1063A000C64B9847020005280DD00700123703009E
:1063B00021680520C90709D511B03CBC9046994613
:1063C000A246AB46F0BD18270123F1E7216817303C
:1063D0008907F1D4052A49D0B949C86901229A40F0
:1063E00013000343CB610FA92D239846F35C0B7078
:1063F000FFB23800B34B98473800B34B9847434639
:10640000F05C0021B14B9847F37A6B712423F35C65
:10641000AB712523F35CEB71F37E2B72337F6B72D0
:106420002B6898461800A54B9847052826D01230AF
:1064300000220E2306A98C4663441A80328A0292F7
:106440008023DB019A4200D1ABE019D9C023DB01E4
:10645000029A9A4200D19FE080231B029A4200D008
:1064600027E1032306930023079312E09449086A67
:10647000043A9A40130003430B62B4E71820D7E7AD
:1064800080239B019A4200D013E1102306930F3B17
:10649000079333680593F368039373690493337E1A
:1064A0009B462623F35C9A4673689946002B00D1DD
:1064B0009FE080235B05994504D12723F35C002BE3
:1064C00000D184E0737E002B02D0B37E42469373EA
:1064D0002A68029FD369002BFCD10E3306AA94468A
:1064E00063441B8842469381059B039A1343049A95
:1064F00013434A4613431F435B461B021F43534645
:106500005B071F432723F35C002B01D104331F4398
:10651000737E9B02327F52021343727F1202134337
:106520002422B25C520413432522B25C12041343AA
:10653000B17AF27A114319433389FF2B7DD080223F
:106540005204174319432C23F35C002B03D1604BF7
:106550009B789B0701D580231F432A68D369002BB2
:10656000FCD1434659602A68D369002BFCD14346CD
:106570001F600EAB80221A7000225A70DA709A7077
:10658000336B0A93736B0B93B36B0C93F36B0293A4
:106590000D9300270AAE5EE008230693073B07939E
:1065A00077E733680593F368039373690493337E45
:1065B0009B462623F35C9A4673689946002B14D0B9
:1065C00080235B05994500D177E7002020E0336AFE
:1065D0001F00C0B23F4B984701000E2206AB9C46FD
:1065E000624438003C4B984712E00823069300238E
:1065F00007932723F35C002B0ED0069B0093079B89
:106600000E2206A98C466244B16A306A334FB847FD
:10661000002800D0D0E655E7336A1F00C0B22D4BEA
:1066200098470100069B0093079B0E2206A884460C
:1066300062443800294FB847EAE7F37E002B82D046
:106640008023DB041F437EE72000254B984707E0AB
:106650000137042F0DD0F9B2BB0098590028F3D0B0
:10666000431CF5D00EA90870000CC0B21D4B984712
:10667000EEE70023EB602B616B61AB61EB612B629A
:10668000AB626B620022EB85AB853033EA54013399
:10669000EA540133EA540133EA542868074B984717
:1066A00004001149114B9847A400114BE5500020FC
:1066B00082E61023069300230793EAE63D5C000080
:1066C00000040040B170000041700000955A0000C5
:1066D00000200041D5700000D7590000015A000089
:1066E000E15A0000AD710000E9680000795C00002B
:1066F0005C240020C2791C23002A01D118007047B5
:10670000C28D92B2173B002AF8D10368DA69002AD9
:10671000FCD1198502211A7E0A42FCD00023EDE744
:1067200082791C23002A01D118007047828D92B211
:10673000173B002AF8D10268107E4007F4D5D369D0
:10674000002BFCD1538BDBB298061DD0980703D5E4
:10675000022353831833E7E7580703D504235383F1
:106760001A33E1E7D80703D5012353831233DBE75C
:10677000D80603D5102353833233D5E79B0603D5C0
:10678000202353832133CFE7138D0B800023CBE7E6
:10679000F0B5CE46474680B583B00500019117207D
:1067A000002A04D103B00CBC90469946F0BDEB79A9
:1067B0000530002BF6D02C68E369002BFCD1013AA0
:1067C00093B29946002601271F4B984611E0731C8F
:1067D0009BB2019A915D6A79012A17D089B21E0095
:1067E00028001A4B98474B46013B9BB299464345BC
:1067F00013D0237E3B42EAD1134B227E3A42E6D1AC
:10680000012B19D0013B002BF7D1E0E70236B6B2DD
:10681000019AD35C1B021943E2E7237E9B070DD448
:10682000094B0221227E0A420AD1012B0AD0013BE8
:10683000002BF7D10020B5E71220B3E70020B1E725
:106840000020AFE71220ADE7FFFF0000F566000073
:10685000F0B5D64600B584B0040001911720002A97
:1068600003D104B004BC9246F0BDA3790530002BDF
:10687000F7D02668013A93B29A460025042719E01A
:10688000002302AAD380911D2000154B98470028B1
:10689000E7D1691C89B202ABDB88019A5355627952
:1068A000012A14D00D005346013B9BB29A460D4B72
:1068B0009A45D6D0337E3B42E2D10A4B327E3A42F1
:1068C000DED1012B09D0013B002BF7D1D8E70235EF
:1068D000ADB21B0A019A5354E5E71220C1E7C04646
:1068E00021670000FFFF0000F8B58000624BC5582B
:1068F0002C68E369002BFCD1237EA67D1E4030234B
:10690000EB5C3122AF5C1F40F30722D5EB8D9BB2CD
:10691000002B1CD0AA6A1378DBB2511CA9626979DA
:1069200001290ED09BB2DB05DB0D2385EB8D013BEE
:106930009BB2EB85002B0CD1013323750133A3757A
:1069400007E0517809020B430232AA62EBE7012308
:106950002375B30706D50223237500223133EA5489
:10696000FB071AD4730765D5AB8D9BB2002B5FD0A4
:10697000638BDBB21A0714D43F221340002B34D0B0
:106980009A0711D51A223223EA54303B63837B07DE
:1069900050D528006B6998474CE02800EB68984771
:1069A000E0E737221340E9E75A0705D51E223223D4
:1069B000EA542E3B6383EAE7DA0705D51322322334
:1069C000EA54313B6383E2E7DA0605D542223223FB
:1069D000EA54223B6383DAE720221A42D7D02132DD
:1069E0003223EA54123B6383D1E7238DDB05DB0DB1
:1069F000DAB2696A0A706A6A511C696269790129A6
:106A000010D0AB8D013B9BB2AB85002B12D1043370
:106A1000237500222E33EA54BB070BD528002B69BF
:106A2000984707E01B0A53706B6A01336B62E8E713
:106A300004232375F30604D5102323752376FB0660
:106A40000ED4B30604D52023237523763B070BD43D
:106A5000330704D5082323752376BB0608D4F8BD75
:106A60002800EB699847ECE72800AB699847EFE707
:106A70002B6A28009847F2E75C24002010B508280C
:106A800003D880001C4B1B589F46002032E01B4B54
:106A900018692FE01A4B187D0007800F431C194816
:106AA000584327E0154B586924E0144B1B6800201D
:106AB0009B071FD5124980225200CB681342FCD09D
:106AC0000E4B1B685B0701D40F4813E000200F4BEF
:106AD00098470A4B9B681B041B0C58430AE0282369
:106AE000074AD35C00209B0704D5044BD86801E01B
:106AF0008020000210BDC046B49D0100E4020020C9
:106B0000000C004000093D00006CDC02D570000064
:106B100070B50B4C237D85784678027803211140AF
:106B200089000C2293430B430B3A324092014021DF
:106B30008B431343ED017F2213402B43237570BD1C
:106B4000000C0040F0B5D6464F464646C0B5204B37
:106B50009A465B69457801784C424C41A146817860
:106B60008C46C1788846467A077A847A4068194903
:106B70004861012148468000042293430343404674
:106B80000840C000043293430343604608400001BC
:106B90000832934303430F40BF01402083433B43EC
:106BA0000E40F601403083433343793805402D02CF
:106BB000094803402B4321400903084803400B4385
:106BC000524653611CBC90469946A246F0BDC04651
:106BD00000100040E4020020FFF8FFFFFFEFFFFF7E
:106BE000082803D88000294B1B589F4617204BE0EC
:106BF000274A137D02210B431375002044E0254AE8
:106C0000936902210B43936100203DE0204A138ADF
:106C100002210B431382002036E01E4A53690221F1
:106C20000B43536100202FE01B490B6802221343E2
:106C30000B60174B1A831900FE32CB681342FCD04D
:106C4000154A9168124B19625268DA6100221A8360
:106C500019000132FF32CB681342FCD00E4B1B6887
:106C60009BB20B4A138300200EE0094928228B5C5B
:106C7000022003438B5408003821263A435C134218
:106C8000FCD1002000E000207047C046D89D0100E4
:106C9000000C004000100040E4020020082832D818
:106CA00080001A4B1B589F46194A137D02218B43C3
:106CB000137500207047174A936902218B43936133
:106CC0000020F7E7124A138A02218B431382002027
:106CD000F0E7104A536902218B4353610020E9E732
:106CE0000D4B1A6802218A431A601B689BB2084A3E
:106CF00013830020DEE7064928228B5C02208343B1
:106D00008B540020D6E71720D4E7C046FC9D010035
:106D1000000C004000100040E4020020F0B5D64610
:106D20004F464646C0B588B080225200564B9A6006
:106D3000FD3A564B9A60564A53681E218B431A39C6
:106D40000B4353608023DB059B78022B0FD08023FD
:106D5000DB059B785BB2002B09DB8023DB0501227E
:106D60009A7101329A701A009379002BFCD005A811
:106D70000023037080221202426083700122C270DD
:106D800003728372033242704372424B984705206C
:106D9000414B984741490122CB681A42FCD03F4AF7
:106DA000536980210B43536102A901254D600024E2
:106DB0004C700C724C7203230B700020384B9847B8
:106DC0000620384B984701A8447005708470364BF4
:106DD00098470620304B98472B491022CB681A421F
:106DE000FCD002AC012666600025657006239A4639
:106DF00023702572657221000020294B9846984720
:106E00002A4B984766606570657205232370267269
:106E100021000120C0470120254B99469847254F66
:106E2000BE717E713E716660657053462370257237
:106E3000657221000020C0470020C84700201E4B7B
:106E400098473979C9B21D4B98471D4B984214D8C1
:106E50008023DB059B78002B0FD08023DB059B78FC
:106E60005BB2002B09DB8023DB0501229A71002233
:106E70009A701A009379002BFCD008B01CBC904685
:106E80009946A246F0BDC046000C004000140040E8
:106E900000400041456B0000E16B00000010004025
:106EA000E96E00009D6C0000116B0000C56E0000D3
:106EB000956F000000040040D56F0000F9500100FC
:106EC000001BB700064A536940210B43536101225E
:106ED000044B1A7019000B781342FCD17047C0465E
:106EE000000400400018004070B504000D784B7895
:106EF000002B02D08023DB001D434B7A002B02D0F5
:106F000080231B011D43486801280FD9431E1842E6
:106F100031D102282DD90223002201325B00984290
:106F2000FBD880235B011D43120415430B7A002B11
:106F300002D080239B011D430426A6401149124A1A
:106F40004B6813401E42FBD1104B9847A4000D4BD9
:106F50009C466444226A80235B001A402A432262D2
:106F60006146094A4B6813401E42FBD1084B9847C3
:106F700070BD0022D5E7000480239B001843054321
:106F8000D4E7C04600180040FC070000A14A0000FA
:106F9000E14A000010B504000422824009480A4971
:106FA00043680B401A42FBD1084B9847A400054B9D
:106FB0009C466444226A80235B0013432362044B93
:106FC000984710BD00180040FC070000A14A0000CF
:106FD000E14A0000F8B50400042282401248134937
:106FE00043680B401A42FBD1114B98470E4F0834AF
:106FF000A400E0590007000F0E4B98470600E55922
:10700000ED04ED0FE459240C0B4B9847002D07D1EC
:10701000012C07D921003000084B9847060001E0F9
:107020000134E6403000F8BD00180040FC070000C5
:10703000A14A00007D6A0000E14A0000F950010009
:1070400010B50400094B9847A000094B9C466044CA
:107050008022835840210B4383504031403A4358AB
:107060001A42FCD0034B984710BDC046A14A00000D
:1070700000180040E14A000010B50400094B984791
:10708000A000094B9C4660448022835840218B43DA
:1070900083504031403A43581A42FCD1034B984741
:1070A00010BDC046A14A000000180040E14A00009F
:1070B00070B504000D00054B98472A780F23134044
:1070C0002034A400024AA35070BDC046797000006D
:1070D0000018004010B50400064B98472034A40067
:1070E000054BE4582407240F044B98472000044B19
:1070F000984710BDA14A000000180040E14A000076
:10710000D56F000030B5D378002B35D11378802BA4
:1071100029D01B0680246402234354780225AC4303
:1071200006D19478002C20D18024A402234341600E
:107130005478013C012C1CD90D042D0CA024E4052D
:107140002C431C4384620D0CD02424062C431C4386
:107150008462D478002C22D15B031CD59378012B58
:107160001ED0416117E00023D7E7C024E402234387
:10717000DDE70D4C2340DFE741600C04240CA02325
:10718000DB05234383620C0CD0231B06234383625D
:10719000D378002B03D15378013B012B02D930BDAA
:1071A0008161F8E78160FAE7FFFFFBFF10B50A0095
:1071B000C1090023002904D14309DB0105498C469C
:1071C00063441F242040012181401800024B98474E
:1071D00010BDC04600280040057100007047FFFF49
:1071E00010B5054B9847054B9847054B9847054BFD
:1071F0009847054B984710BD1D6D0000114B0000CE
:10720000DD7100005D4E0000DD710000931C9B00ED
:107210001950022A09D0032A0CD0012393401A00E6
:10722000037E1343037600207047037E102213432E
:107230000376F8E7037E202213430376F3E7FFFF8C
:1072400070B58000164BC45823689D7A227E637EF9
:1072500013401D40EB0706D4AB070BD4EB0610D44C
:10726000AB0615D470BD2000A3689847012322689F
:107270009372F1E72000E368984702232268937233
:10728000ECE7200023699847102322689372E7E710
:10729000200063699847236820229A72E2E7C0467B
:1072A0007424002010B50020014B984710BDC04643
:1072B0004172000010B50120014B984710BDC04637
:1072C0004172000010B50220014B984710BDC04626
:1072D0004172000030B587B001A90C4B0A0032CBD7
:1072E00032C212CB12C2019B98420BD0012301A9DA
:1072F0009A005258824206D00133052BF8D1002063
:1073000007B030BD0023D8B2FAE7C046489E01005E
:10731000F0B5C64600B58EB004000D00160008009A
:10732000AE4B984780460CAB1B221A705A70013244
:107330009A70DA7001321A7102A9A94B14330A004B
:1073400083CB83C283CB83C283CB83C21B6813608E
:107350000023A360E3602361636123766376434681
:107360009A00A04BD45025603423F35CA376F378C5
:10737000082B08D023712B680520DB0708D50EB039
:1073800004BC9046F0BD17204246D207F7D4F1E77F
:10739000EB7A17309B07F2D42B689B07EFD4337C32
:1073A000002B12D1337F002B1BD143465A0002A978
:1073B000531C9B0058584346DB005B58D9B2042944
:1073C00023D88B008849CB589F4601A901238B7095
:1073D0000022CA70327E0A704B70307D834B984712
:1073E000E0E701A901238B700022CA702432B21891
:1073F00012780A704B701F33F31818787B4B98473C
:10740000D3E77B494B6918434861F378082B00D1D7
:1074100086E033786A4613700CAB42469F5C69463F
:107420003800744B98473800734B9847F378F279DB
:107430001343B2881343727A002A02D08022520288
:107440001343B27A002A02D0802292021343F27AC6
:10745000002A02D0802252031343327B002A02D03A
:1074600080229203134371788901B278D2011143CB
:10747000194322681369002BFCD129602268136923
:10748000002BFCD1B3792B73717B4B1E9941890082
:10749000B37B002B01D00123194322681369002B11
:1074A000FCD1FF332B71002904D022681369002B13
:1074B000FCD16971337A6B7322681369002BFCD19C
:1074C0002379042B59D0082B74D01720002B00D01F
:1074D00055E71369002BFCD1338DAB822268136909
:1074E000002BFCD1738DAB8322681369002BFCD178
:1074F000B38DEB83002042E73D498B6918438861D7
:1075000083E73B49CB691843C8617EE738490B6A7A
:107510001843086279E7364B596A0843586274E7A2
:1075200043460133042B00DD73E702ABD11C890015
:10753000C95802329200D358DAB2042A00D968E757
:1075400093002E4AD3589F46294A536919435161E3
:107550005FE7274A9369194391615AE7244AD3693F
:107560001943D16155E7224A136A1943116250E762
:107570001F4B5A6A114359624BE71369002BFCD128
:107580002833F35C2B7522681369002BFCD1293357
:10759000F35CEB7622681369002BFCD12A33F35C91
:1075A0002B7722681369002BFCD12B33F35C6B77AC
:1075B0000020E4E61369002BFCD1B36A6B612268FA
:1075C0001369002BFCD1F36AEB6122681369002B6D
:1075D000FCD1336B2B620020D1E6C046D57200008F
:1075E000489E010074240020209E0100AD7100001F
:1075F00000040040B170000041700000349E0100A2
:1076000002681369002BFCD1137101680B69002B10
:10761000FCD18033537153795BB2002BFBDB0268E2
:107620001369002BFCD10379042B05D0082B09D05A
:107630000020002B03D07047107DC0B2FBE7908A7A
:1076400080B2F8E75069F6E710B504682369002BAB
:10765000FCD10379042B06D0082B28D0002B13D0A3
:107660001723180010BD17230129FAD8837E002B99
:1076700005D0D2B2611830310A700023F1E7D2B2DE
:10768000641822770023ECE717230129E9D8837EC9
:10769000002B05D092B2183149000A530023E0E7CD
:1076A00092B20C3149006418A2800023D9E7172355
:1076B0000129D6D8837E002B05D1063189006418B4
:1076C00062600023CDE70C3189000A510023C8E72E
:1076D000FEE7FFFF10B51A4A1A4B9A4211D01A0062
:1076E000194B9A420DD2194A03339B1A9B08013356
:1076F0009B000022134812498C58845004329A424D
:10770000FAD1134A134B9A420AD2D34311495B1858
:1077100003218B4304339B18002102C29342FCD106
:107720000D4AFF210D4B8B4393600D4A53687F39FF
:107730000B4353600B4B98470B4B9847FEE7C046F3
:1077400058B201000000002090000020040000203A
:1077500090000020F841002000ED00E00000000053
:1077600000400041F5820100C59B0000F0B5C6460F
:1077700000B50C00904600280FD1002A11DD8F18AB
:10778000094E0A4D306821002B6898470134BC42ED
:10779000F8D1404604BC9046F0BD01235B429846B8
:1077A000F7E78046F5E7C0469024002088240020B3
:1077B000F0B5C64600B50E0015000138022810D8F5
:1077C000002A11D000240C4B98460C4F43461868F1
:1077D000315D3B689847002808DB0134A542F5D1AC
:1077E00006E00124644203E0140001E00124644245
:1077F000200004BC9046F0BD902400208C24002082
:107800000300064A1268002A04D0044A1068C3180C
:10781000136070470249014A1160F6E7FC0200203C
:10782000F861002001204042704780239B014B609B
:1078300000207047012070470020704700BEFEE71F
:10784000704701204042704730B5531EDBB2002A1A
:107850000BD00024C5182A7852002243CA542C7831
:10786000E409013BDBB2FF2BF4D130BD10B584B08D
:107870000400110010226846044B98476946200016
:10788000034B9847002004B010BDC0465B83010045
:107890008505010010B5014B984710BD6D780000BB
:1078A00000207047F0B5D6464F464646C0B5A4B056
:1078B00001900F00029103929A462CAB1C8808AEEF
:1078C000102200213000644DA8478723F373102253
:1078D000002104A8A847019A390004A85F4B9847E3
:1078E00004AB1B787F2B2DD8102220A904A85C4B59
:1078F000984720AB1B787F2B34D810221CA920A8D6
:10790000574B984723000F331D11AAB29046002A07
:1079100038D0220738D14246013A120196B2514F6F
:107920001F40BE4254DA330010A920AA981B80B22F
:107930005446E45C155C6C400C5401339BB2BB4272
:10794000F4DB45E0102220A904A8454B984700230A
:1079500020AA08A9985C5D5C684098540133102BFC
:10796000F8D1C6E710221CA920A83D4B9847002358
:107970001CAA08A9985C5D5C684098540133102BE0
:10798000F8D1BFE7012398460F2320009843002336
:107990000F2214400CA900278026504405E0944291
:1079A00009D05F540133102B07D09AB29442F6D914
:1079B000C25C5A54F6E75E54F4E7002310A80CA901
:1079C0001CAA5C5C9D5C6C401C540133102BF8D1EC
:1079D0001022002118A8204B984701235B42434402
:1079E000994600200027002B1ADD14AD18AC1E4E5E
:1079F000000100235044C25C195D4A405A550133CE
:107A0000102BF8D1102229002000B047019A0299CA
:107A10002000124B98470137BFB238004F45E7DBD3
:107A2000002314AC18A810A91A5C5D5C6A401A55B2
:107A30000133102BF8D1019A029914A8074B9847EB
:107A4000102214A90398084B9847002024B01CBCAE
:107A500090469946A246F0BD6D8301006D78000006
:107A600049780000F0FF0F005B83010010B50C00A7
:107A70001F2800D993E080004A4B1B589F460020E6
:107A800010BD494B1B7E0B700020F9E7464B1B686D
:107A90000B600020F4E7444B5B680B600020EFE7CD
:107AA000414B9B8A0B800020EAE722233E4AD35CAD
:107AB0000B700020E4E723233B4AD35C0B700020CB
:107AC000DEE72523384AD35C0B700020D8E7362345
:107AD000354AD35C0B700020D2E72423324AD35CB2
:107AE0000B700020CCE734232F4AD35C0B700020AE
:107AF000C6E72D4BDB8A0B800020C1E733232A4ADF
:107B0000D35C0B700020BBE7274BDB680B600020C9
:107B1000B6E7254B9B680B600020B1E73723224A6C
:107B2000D35C0B700020ABE738231F4AD35C0B708B
:107B30000020A5E739231C4AD35C0B7000209FE787
:107B400019492123CA5C19312000184B984700209D
:107B500096E72123144AD35C0B70002090E7322370
:107B6000114AD3560B7000208AE735230E4AD35CA6
:107B70000B70002084E706220B493C3120000B4BA0
:107B8000984700207CE75423074AD35C0B70002001
:107B900076E75623044AD35E0B80002070E7052069
:107BA0006EE7C046849E0100A83B00205B83010075
:107BB000F0B5C64600B504000D007B4B9847042382
:107BC000012803D0180004BC9046F0BD1D2C00D93C
:107BD000E5E0A400754B1B599F46002D00D1E0E065
:107BE000734B1D610023EDE76C79002C1ED02E88AD
:107BF0000323002EE6D02F79002FE3D00222AB5EC4
:107C000098466B4DFA20800070433900694B9847C5
:107C1000694B9847694B9847A864AE874346EB8702
:107C20004023EF540133EC540023CBE7604B002298
:107C30009A649A87DA8740320021995401329C5421
:107C40000023BFE72A785A4B1A760023BAE72A683E
:107C50005B4BD1185B4B99420AD95B495B4BD318FC
:107C60008B4205D95A4805235A4951188142A9D84F
:107C70004F4B1A600023A5E72A684D4B5A6000233A
:107C8000A0E72A884A4B9A8200239BE7297822237F
:107C9000474AD154002395E72A780523012A00D9C1
:107CA00090E71E334249CA5400238BE72A78052304
:107CB000012A00D986E720333D49CA54002381E7D1
:107CC0002A78D11F0523022900D97BE731333849AF
:107CD000CA54002376E729782423354AD154002357
:107CE00070E72A780523012A00D96BE72F33304942
:107CF000CA54002366E72A882D4BDA82002361E705
:107D00002A78511E0523032900D95BE72E33284921
:107D1000CA54002356E7264B2A68DA602A68244BA7
:107D20009A6000234EE72A780523032A00D949E701
:107D300032331F49CA54002344E72A78511E0523D1
:107D4000162900D93EE733331949CA54002339E7CD
:107D50002A78511E0523162900D933E734331449F4
:107D6000CA5400232EE71C48027A29001B4B98476F
:107D7000002327E72B781A1C082B00D9082221237F
:107D80000B49CA5400231DE72A78D11F0523052972
:107D900000D917E730330649CA54002312E70523F8
:107DA00010E703230EE7C0467D870000049F010013
:107DB000A83B00200D5201005164010069550100EB
:107DC000C08BD5F780D54302C0C2DA0680E58FE7C5
:107DD00080E36A0980EC9ECCC13B00205B830100FC
:107DE00010B50C4B98471F200B4B98470B490120AF
:107DF0000B4CA0470B490220A0470B490420A04789
:107E00000A490820A0470A491020A0470949202014
:107E1000A04710BD558F000089870000DD8200005B
:107E200085FE00006D830000F58300005D84000086
:107E30008D840000BD84000070B506000C4D0D4916
:107E4000A84704000B4930000B4B98472402080256
:107E50000849A8470419210CC9B20620074DA847B4
:107E6000210AC9B20720A847E1B20820A84770BD7F
:107E7000F9500100093D00000552010051FD0000CC
:107E8000F8B50500D24C3423E15C00220020D14B30
:107E900098472068D04B98472223E3562422A25CBF
:107EA000002A25D11A1C033301DACC4B1A78141C92
:107EB00052B20F2A00DD0F2466B24D20C84B9847FE
:107EC000F8210140042001434930C64B9847002E59
:107ED00006DB70213143C9B20920C24B98472FE01D
:107EE0000334E1B2202421430920BE4B984727E008
:107EF0001C1C012B00DC8EE063B2132B00DDAAE119
:107F00000B20B74FB84706004D20B847F821014075
:107F100004200143271C64B2112C00DD1127023F0D
:107F20007FB220243443E4B24D20AE4EB0478021CE
:107F300049423943C9B20920B04721000B20B0475C
:107F40003423A34AD35C012B67D0A14D6B68180280
:107F5000A54FA649B8470600010AC9B20420A14CA2
:107F6000A047F1B20520A047A968A148B84706007C
:107F7000010AC9B20220A047F1B20320A0470021A4
:107F80005D20A047A98A090A2520A047297D26202F
:107F9000A0479E210D20A047BF213520A0470A20E1
:107FA0008F4B98473723E95C4901293398430143B4
:107FB000C9B20A20A0472323EB5CC021002B00D0CC
:107FC00010313020874B98472123814AD35C002B06
:107FD00000D13BE100241500824F21262B19597E48
:107FE00020002830C0B2B8470134E4B2A95DA142F4
:107FF000F4D8002900D129E1013910231943C9B26D
:108000002720784B9847FF213E20764CA047FF2140
:108010003F20A047F8BD02246EE71400117E3920EE
:10802000704EB0473623E15C0901033BE35C5B0023
:1080300019432623E25C253B13401943C9B21D2096
:10804000B0472323E35C9B00042119403523E35C04
:108050001B011943AB059B0F1943C9B21E20B04742
:10806000E28A0021002A0DD036235949CB5C082B27
:1080700064D0092B65D00021072B5AD03523544AF0
:10808000D35CD940C9B22420564CA047E9B21F2086
:10809000A0472620524B984735234D4AD35C0C2BE2
:1080A00053D04B4B5B6B534A1340534A934251D0CE
:1080B000F72101400420014322304A4CA0473120DF
:1080C000474B9847F8210140032001432E30A04739
:1080D0000A213720A04731233D4AD35C122B3DD0E3
:1080E00033203F4B98473A4D2523EB5C9B014021C1
:1080F0001940402398430143C9B23320394CA0476B
:10810000A98A090A2020A047297D2120A047002113
:108110000D20A04700210E20A04700210F20A047DE
:108120003123EB5C122B3DD0FF2112202D4B9847C1
:1081300070E75101891A890089189FE7FA21514394
:108140009CE7FA214900514398E72A33D35C073B67
:10815000012BA6D808210143C9B2ABE72433D35C75
:10816000073B012B0FD93623194AD35C092BB7D112
:1081700031201B4B9847802149420143C9B231202D
:10818000184B9847ACE73120154B98477F210140A9
:108190003120144CA04740212F20A047002130203F
:1081A000A047E0E724330A4AD35C092B26D00321F9
:1081B00036200C4B98473623054AD35C092B39D01F
:1081C00065213A20074CA0471D213B20A047ABE783
:1081D000A83B0020D90F0100397E00007C9F0100E0
:1081E00079FD000051FD0000F9500100093D00003B
:1081F0000048E80100FFFF00000B070013681D4A5C
:1082000099181D4A914207D8022136201B4CA047DD
:1082100064213A20A047CEE7194A94466344194A9C
:108220009342C4D802213620144CA0477F213A2023
:10823000A047C0E71C33D35C012BC1D165213A2094
:108240000E4CA04719213B20A0476DE700212720B5
:108250000A4B9847D7E60B200B4EB04704004D2041
:10826000B047F821014007200143DF231C400F27BE
:108270005AE6C04680EC9ECC80E36A0951FD0000BE
:1082800080E58FE7C0C2DA0679FD0000F0B5C6468A
:1082900000B507000E00140098464020054DA84781
:1082A000044043461C413C700120A847307004BC88
:1082B0009046F0BD79FD000010B5012807D0FF21E0
:1082C0003E20054CA047FF213F20A04710BDFF21C5
:1082D0001130014B9847F9E751FD000030B583B0EC
:1082E0006B469C1D0623C022210068460730194DAD
:1082F000A847227853B2002B11DB6B4607331B785B
:10830000002B23D1073313406A469371032B17D0F8
:10831000052B18D00020104B984703B030BD6B469A
:1083200007331B78002B05D0012B06D001200A4B08
:108330009847F2E7094B9847EFE7094B9847ECE776
:10834000084B9847E9E7084B9847E6E70020024BBF
:108350009847E2E78D820000B9820000098C000096
:10836000058B0000858B00008D8C000030B583B03C
:108370006B469C1D04233022210068460730174DB0
:10838000A847227853B2002B0CDB072313406A4620
:1083900093716A4607321278002A14D0012A17D046
:1083A00003B030BD6B4607331B78002B05D0012B83
:1083B00006D001200A4B9847F2E70A4B9847EFE7AF
:1083C000094B9847ECE7052BEAD1084B9847E7E7BC
:1083D000032BE5D1064B9847E2E7C0468D820000AB
:1083E000B9820000898A0000BD100100D588000014
:1083F0009589000030B583B06B469C1D02230C228A
:10840000210068460730114DA847227853B2002B4F
:108410000CDB072313406A4693716A4607321278D1
:10842000032A01D1052B0DD003B030BD6B460733B5
:108430001B78022B02D8064B9847F5E70120054B25
:108440009847F1E7044B9847EEE7C0468D8200005D
:10845000BD100100B9820000A588000030B583B0CE
:108460006B469C1D00230322210068460730054D02
:10847000A84723787F2B01D803B030BD0120024BE1
:108480009847F9E78D820000B982000030B583B0CB
:108490006B469C1D0623C022210068460730054D0F
:1084A000A84723787F2B01D803B030BD0120024BB1
:1084B0009847F9E78D820000B982000030B583B09B
:1084C0006B469C1D04233022210068460730054D71
:1084D000A84723787F2B01D803B030BD0120024B81
:1084E0009847F9E78D820000B982000010B584B08A
:1084F0001D4B4F22995C0131C9B299540F3A9B5CD4
:108500008B4218D2194A108880239B0003431380A2
:10851000154C636C58004B1E594389B2144B984755
:108520004C23E05200234F22A35463640120114BDB
:10853000984704B010BD0E246C4420000E4B9847A1
:10854000094B0022A15E4F229A5C4A43596C8C462B
:1085500062445A64996C5022985C00230093074B44
:108560000022074CA047E4E7A83B0020A4250020F8
:108570000D520100AD860000F5110100ED840000F0
:108580009D09010070B582B0144B98470020144B30
:108590009847144C2068144B984700254C23E5520B
:1085A000012200210020114EB047114B9847114B7A
:1085B0009847114B984709211220104B98470022E9
:1085C00000210520B0475023E05C00950C4B0022B1
:1085D0000C490D4CA047002002B070BDE18D000099
:1085E000C5890000A83B0020397E0000D90F01009A
:1085F00035FE000055FE000075FE000051FD000034
:10860000ED840000282300009D09010000B585B01D
:108610001A4A13881A490B401380002200210020B7
:10862000184B9847184B9847184B9847184B984742
:108630000020184B9847184B9847184B4C229A5ECD
:108640003E215B5E9A4211DB072201AB1A700120CA
:10865000134B9847134B1B789B070CD50F4B1B698B
:10866000002B08D001A90220984704E002200C4BFF
:1086700098470D4B9847002005B000BDA425002069
:10868000FFFDFFFFD90F010025FE000045FE0000A1
:1086900065FE0000FD890000398F0000A83B002026
:1086A00071870000A82500200192000010B5040089
:1086B000054B9847054B188820431880044B984772
:1086C0000220044B984710BD69FF00000003002002
:1086D00075FF0000B50F010010B50400044B98476A
:1086E000044A1388A3431380034B984710BDC04628
:1086F00069FF00000003002075FF000070B5174BF4
:108700001B889BB2002B0FD0144B1B88DB070DD4AA
:1087100001221248012103889BB21400134119421F
:1087200005D10132052AF6D1002070BD00240C4B82
:1087300098470A4D2B880122A24093432B80094B76
:108740009847A400084BE35898472B889BB2002B0E
:10875000EAD00220054B9847E6E7C0460003002018
:1087600069FF000075FF0000809F0100B50F010048
:10877000014B18707047C046A9250020014B18789E
:10878000C0B27047A9250020024A13781843107020
:108790007047C046A825002070B504000F4B1B7819
:1087A0000420012B00D070BD0D4D2E33E85C0D4B25
:1087B000984723780C4A137061680C4A1160342280
:1087C000AA5C002A02D102203F2BECD80222034BE4
:1087D0001A700420064B98470020E4E7A9250020E2
:1087E000A83B0020B50C010014030020100300205A
:1087F000AD86000070B50C00254B98475823254ADC
:10880000D35C002B18D1002C30D03E2C09D8224B41
:10881000196822000020214B984758231D4AD45440
:1088200024E01D4B19683F2200201C4B98473F2134
:108830005823184AD15419E05823164AD35CDBB2A6
:108840009C4213D05823D35CE31ADBB23F2B10D9E0
:10885000104D58242B5D104A1168C9183F22002082
:108860000E4B98472B5D3F33DBB22B550C4B984793
:1088700070BD16005825535D525DA21AD2B206494A
:108880000968C9180020054B98477455EEE7C046A3
:10889000A14A0000A83B002010030020A5FD000015
:1088A000E14A000010B5084B98473423074AD35CCF
:1088B000002B05D1130000222C215A542C315A547C
:1088C000034B984710BDC046A14A0000A83B0020BA
:1088D000E14A000070B52A4B98472A4A2C23D35C02
:1088E0005821525CDBB2934219D02C23254AD35C29
:1088F000002B1ED0234A2C23D35C5821525C9B1A98
:10890000DBB23E2B1BD91F4A2C23D35C5821525C6F
:108910009B1ADBB23F2B24D81B4B984770BD2C23EE
:10892000184AD35C002BE0D05823D35C002BDCD05A
:10893000F2E7012215490020154B9847DAE7114C60
:108940005825615D2C26A25D635DD21AD2B2A36A5E
:108950009C46614400200E4B9847A35DDBB26355F3
:10896000DAE7084C5825615DA36A9C4661443F22C2
:108970000020074B9847635D3F33DBB26355CBE77D
:10898000A14A0000A83B0020E14A0000D43B00209F
:10899000E5FD000010B5034B1978034B1868034B35
:1089A000984710BD1403002010030020F587000035
:1089B000034B9A6A02602C229B5C0B80002070475C
:1089C000A83B002010B50100084B1B68084A9446DC
:1089D0006344084A0020934205D82423034AD35C09
:1089E000581E8341581C044B984710BDA83B0020DB
:1089F00080EC9ECC80E36A09B1FE000010B5010056
:108A0000084B1B68084A94466344084A0020934276
:108A100005D82423034AD35C581E8341581C044BB9
:108A2000984710BDA83B002080EC9ECC80E36A09EB
:108A3000D9FE000010B5104B1B78042B04D00E4B50
:108A40001B78022B0CD010BD0C4A138820210B433D
:108A5000138000200A4B984702200A4B9847F2E700
:108A6000064A138810210B4313800120044B9847BA
:108A70000120044B9847E6E7A9250020A425002003
:108A8000FD890000AD86000010B52F23094AD05C97
:108A9000094B98470020094B984780211220084B2A
:108AA0009847084A138840210B4313800220064B45
:108AB000984710BDA83B0020B50C0100FD890000BF
:108AC00051FD0000A4250020AD86000010B52F2325
:108AD000074AD05C074B98470020074B9847074A46
:108AE000138880210B4313800220054B984710BD4B
:108AF000A83B0020B50C0100FD890000A425002042
:108B0000AD86000070B52F23144AD05C144B9847F3
:108B10000120144B984708211220134B9847134B00
:108B20001B78022B03D0124B1B889B0615D4104ACE
:108B3000138801210B43138001200E4B98470E4BE5
:108B400098470E4C22686368801A9941FA22920075
:108B500000230B4DA8472060616070BDA83B00203A
:108B6000B50C0100FD89000051FD0000A925002081
:108B7000A4250020AD86000045090100080300205F
:108B8000D554010070B53F20154B9847030700D41A
:108B900070BD2F23134AD05C134B98470120134B11
:108BA0009847134B1B78022B03D0124B1B889B0654
:108BB000EED4114B9847114C22686368801A994192
:108BC000FA22920000230E4DA84720606160012028
:108BD0000C4B9847074A138804210B431380D7E7AF
:108BE00079FD0000A83B0020B50C0100FD890000C4
:108BF000A9250020A4250020450901000803002024
:108C0000D5540100AD86000070B51220184B98476E
:108C1000040070211220174B984750232340502BFB
:108C200000D070BD144D213BE85C144B98470020E8
:108C3000134B98471C200E4B98472323EB5C002BCB
:108C40000DD0A30601D4430609D40E4A118880230F
:108C50005B000B43138002200B4B9847E1E7094A66
:108C6000138802210B4313800220074B9847D8E753
:108C700079FD000051FD0000A83B0020B50C01006B
:108C8000FD890000A4250020AD86000070B53F20BE
:108C9000494B9847430723D52323484AD35C012BEC
:108CA0001FD0464C2F23E05C454DA8472E23E05CA7
:108CB000A84721002C3101220020424DA8472C2337
:108CC000E25CD2B2A16A0020A84700203E4B984740
:108CD0003E4A138808210B43138002203C4B9847DF
:108CE00070BD83075ED514002F23D05C344DA84798
:108CF0002E23E05CA847374B98472C23E35C58228F
:108D0000A25CDBB2934230D02C232C4AD35C002BE4
:108D100035D05823294AD35C002B36D0274A2C2340
:108D2000D35C5821525C9B1A002B10DD234C582534
:108D3000615D2C26A25D635DD21AD2B2A36A9C4605
:108D4000614400201F4B9847A35DDBB26355224B63
:108D5000984700201C4B98471C4A138808210B4356
:108D6000138002201A4B9847BAE72C23134AD35C8E
:108D7000002BC9D05823D35C002BC5D0E7E70122D4
:108D8000164900200F4B9847C3E714002C25525D6D
:108D9000D2B2A16A00200B4B9847635DDBB2582228
:108DA000A354D4E7094A118880235B000B43138046
:108DB0000220074B984793E779FD0000A83B00206D
:108DC000B50C0100E5FD0000FD890000A425002090
:108DD000AD860000A14A0000E14A0000D43B00201B
:108DE00010B55523084AD35C002B00D010BD4B2092
:108DF000064B984710210143C9B24B20044B9847BA
:108E0000044B9847F2E7C046A83B002079FD0000DC
:108E100051FD0000F9FE000030B583B03C4B98478F
:108E200000203C4B98473C4B1888002846D1043022
:108E30003A4B984734233A4AD35C012B41D0384C03
:108E40003823E15C1220374DA8473923E15C132019
:108E5000A8470C214020A84700214120A847002313
:108E600000215622A1522A3AA3542C32A3542A4B51
:108E70001B88002B30D03423294AD35C012B33D0FC
:108E8000002200210520284B9847234B1B88FA21FC
:108E9000890059432E23224AD05C00230093234BA0
:108EA0000022234CA0471E4BD968002903D01A4B3F
:108EB0001B88002B1ED1002003B030BD174B9847F4
:108EC000B8E701212220174CA04700214020A047ED
:108ED00000214120A047CAE73433114AD15C002267
:108EE0000520114B9847DEE70022012106200E4B9A
:108EF0009847D8E7FA239B0059432F23084AD05CB0
:108F0000002300930B4B0022094CA047D3E7C04637
:108F1000E18D0000C589000004030020817E00006F
:108F2000A83B002051FD0000D90F0100CD8A0000B0
:108F30009D090100358A000010B55523034AD35C12
:108F4000002B00D010BD024B9847FBE7A83B002048
:108F500015FF000070B501205F4B18705F4B604A31
:108F60001A60604A5A60604A9A6034215854072453
:108F700036229C54143A98541132985400222625D3
:108F80005A551E3D9D822D355C551C3418550134B3
:108F90001A5501341A559C345C765F359D76DC7623
:108FA000913DA03C1D5519760021DA827D351134A2
:108FB0001D554E4CDC607E3D37241D55093501346E
:108FC0001D55073501341D550D3C1955484C9C6203
:108FD0004C241A53023419555A64013419559A64B1
:108FE0000F3C19559A87DA874132995413329954B4
:108FF0000132985403329954283A9B5C002B1BD1C0
:109000003C483D4B9847082802D03C4B984721E00C
:109010003B48394B98470828F7D13A48364B984790
:109020000828F2D13848344B98470828EDD101215F
:1090300030232A4AD1540DE0284D2D23E85C334CCF
:10904000A0472E23E85CA0472F23E85CA0475023CD
:10905000E85CA0472E4B98472E4B9847002832D00B
:109060002D4B98470122002101202C4B98471B4B88
:1090700018682B4B984742213B202A4B98472A4D92
:1090800020243B20A8470442FBD123210C20254C5F
:10909000A047AA211F20A047FF213220A04740213E
:1090A0003120A0470122012100201C4B9847FF21BD
:1090B0002320A04742201C4B98473123074AD05415
:1090C0001A4B984770BD054C00225523E254184BAB
:1090D00098475423E054C3E7A9250020A83B00206B
:1090E000A027BE33A861000050C30000983A0000DA
:1090F000A4240020D53B002069090100AD0801002F
:10910000D63B0020D73B0020F83B0020B50C0100E7
:1091100011FD0000F5FE0000E18D0000D90F0100F7
:10912000397E000051FD000079FD0000398F0000FC
:10913000F1FE000070B504000378002B21D1274B0D
:109140001B780420012B00D070BD254D2E33E85C28
:10915000244B98473423EB5C002B0CD06288224BC5
:109160001A8004221D4B1A700820204B9847204B70
:1091700098470020E8E72E33194AD05C194B9847EE
:10918000ECE7164B1B780020012BDDD0134B1B782E
:109190000330042BD8D1124C2B33E05C114B984791
:1091A0003423E35C002B12D034230D4AD15C00221F
:1091B0000020104B9847104B98470122074B1A701C
:1091C00008200E4CA0470220A0470020BCE72E3309
:1091D000034AD05C034B9847E6E7C046A925002028
:1091E000A83B0020B50C010004030020AD86000060
:1091F000E18D0000D90F0100398F0000D9860000F1
:10920000F0B587B0002203AB1A70694B9847694CE0
:109210002D23E05C684B98474123E35C002B36D15B
:1092200003AB1B78072B2FD00120644B98470420F9
:10923000634B984734235F4AD35C012B00D188E00D
:10924000002140205F4CA04700214120A047002181
:109250005823584AD1545C4D29780020A0472978DA
:109260005A4B18685A4B9847524C3423E15C002201
:109270000320584B9847584B9847584B18605960F3
:10928000E168002900D086E0002007B0F0BD494C1D
:10929000A38FFA20800058433221514B9847402534
:1092A0006055434B98470020444B984720684D4BEE
:1092B000984700224C23E252013200210020454E03
:1092C000B047494B9847494B9847494B9847092124
:1092D00012203C4B9847012200210520B047635DD6
:1092E000002B12D00024434D434F324E2800B84784
:1092F0003E23F25E00216B5E9A420DDB0134E4B244
:1093000040232C4AD35CA342F0D83C4B98473C4BBB
:1093100098473C4B984783E7384B9847384B9847DA
:10932000384B98470020384B9847384B98470722CE
:1093300003AB1A70063A364B1A70364B1B789B07F4
:10934000A2D51C4B1B69002B9ED003A90220984775
:1093500066E71D4D297822201A4CA0470A202E4B83
:109360009847F0210140082001430230A0474021E6
:109370004020A04700214120A04734230D4AD15C62
:1093800001220120134B98472A78104B19680020BE
:10939000224B984768E7FA239B0059432F23054A3D
:1093A000D05C002300931E4B00221E4CA0476BE7AD
:1093B000E18D0000A83B0020B50C0100C58900002C
:1093C000817E000051FD00001403002010030020E6
:1093D000F5870000D90F01004509010008030020AE
:1093E0000D520100397E000035FE000055FE0000E0
:1093F00075FE000002030020F511010025FE0000AB
:1094000045FE000065FE0000FD890000398F000068
:10941000A9250020A825002079FD0000A5FD000059
:10942000358A00009D090100F0B585B0344B1B88DA
:10943000DB060ED4324B1B88DB0735D4304B1B8840
:109440005B0731D42E4B1B889B0555D4002005B0FB
:10945000F0BD2B4A138810218B431380294C3427ED
:10946000E15D01220120284EB04701ABE268029283
:1094700000251D70E15D00220020B0470122234B32
:109480001A705823E554224B1B785B0704D4214BF8
:109490009847214B9847D9E71A4B1B69002BF6D008
:1094A00001A904209847F2E7154B1A880126B24318
:1094B0001A801A8804218A431A8001AB174A12685D
:1094C000029200251D700F4C3423E15C0022002025
:1094D0000D4B9847124B98470C4B1E705823E55480
:1094E0000B4B1B789B07B1D5064B1B69002BADD0EE
:1094F00001A902209847A9E70A4B9847A6E7C0466A
:10950000A4250020A83B0020D90F0100A925002098
:10951000A825002011FD0000558F00000803002041
:10952000398F00000D86000070B584B0A74B1B88F2
:109530009B0618D4A54B1B885B063CD4A34B1B8809
:109540001B0638D4A14B1B889B075CD49F4B1B8800
:109550001B0700D5DFE09D4B1B88DB0500D506E12E
:10956000002004B070BD994A138820218B431380DA
:10957000974C3426A15D01220120964DA847A15D9C
:1095800000220020A847944B98470122934B1A7061
:10959000002301AA13702C22A3542C32A354904B05
:1095A0001B781B07DCD58A4B1B69002BD8D001A97F
:1095B00008209847D4E7854B1A8840218A431A80AF
:1095C0001A8840318A431A80814C3423E15C00229E
:1095D0000020804B9847804B984701227F4B1A70A0
:1095E000002301AA13702C22A3542C32A3547C4BC9
:1095F0001B781B07B4D5764B1B69002BB0D001A993
:1096000008209847ACE7714A138802218B431380E6
:109610001320744EB0476E4C2C25605500210D2050
:10962000714B9847625DD2B2A16A00206F4B984798
:109630001920B04740B2002821DB0006800E3223FB
:10964000634AD0541A20674B984702B232236049CC
:10965000CB56002B1BDB5E4B1B6865495C186549CC
:109660008C4230D964498C46634464498B4230D87B
:10967000A438121180185623554AD05229E043428B
:109680001B069B0E5B42322251498B54DAE7096874
:10969000574C0D19574CA5420DD9574CA44661445F
:1096A000564CA14215D8A43B1B181011181856236C
:1096B000474AD0520DE09D3B1818121180185623CE
:1096C000434AD05205E09D38121180185623404A73
:1096D000D0523F4C3423E15C002200203D4B9847A0
:1096E0003D4B984701ABA26A02922C22A25C1A72EF
:1096F00000221A700132394B1A70394B1B78DB0784
:1097000000D42DE7324B1B69002B00D128E701A9BB
:109710000120984724E72D4A138808218B431380A2
:109720002B4C80223223E2540233E15C00220020E1
:10973000284B9847284B984701ABA26A02922C22EB
:10974000A25C1A720022582162541A700132234B13
:109750001A70234B1B78DB0700D401E71C4B1B69F5
:10976000002B00D1FCE601A901209847F8E6174A32
:10977000138823490B401380154C2C25625DD2B20F
:10978000A16A0020194B98473423E15C0022002095
:10979000104B9847104B984701ABA26A0292625D4A
:1097A0001A720022582162541A7001320B4B1A703F
:1097B0000B4B1B78DB0600D4D2E6054B1B69002B54
:1097C00000D1CDE601A910209847C9E6A4250020C4
:1097D000A83B0020D90F0100398F0000A9250020E7
:1097E000A825002079FD000051FD0000E5FD0000E6
:1097F00080EC9ECC80E36A0980E58FE7C0C2DA0680
:10980000FFFEFFFF10B5012200211048104B9847C2
:109810001048114CA0471148A0471148A0471148D3
:10982000A0471148A0471148A0471148A047114838
:10983000A0471148A0471148114CA0471148A04724
:109840001148A0471148A04710BDC04688A001009C
:1098500041A90000B0A001001589010020A101006C
:109860005CA1010084A10100A4A10100C0A101002C
:1098700000A201003CA2010078A20100C0A20100E8
:10988000318A0100C4A20100E4A2010004A3010086
:1098900070B5040000290ED0012201000D480E4BC6
:1098A00098470E480E4DA84721000E48A8470E487D
:1098B0000E4B984770BD012201000D48064B98479A
:1098C0000C48074DA84721000648A8470648074B03
:1098D0009847EFE700A0010041A9000020A0010087
:1098E00015890100FC9F010048AD0100318A01008B
:1098F000BC9F0100DC9F0100F8B52F4B1B781B07B4
:109900002AD42D4B1B789B072BD01C212B482C4B8A
:109910009847294C617B2B482B4B984723785B0653
:1099200024D403212948264B9847294B1B7800242F
:10993000022B3AD0204B1B7BA34209D91E4D254E4A
:10994000AB68185DB0470134E4B22B7BA342F7D873
:109950002148224B9847F8BD09212148184B9847C8
:10996000CFE71A211F48164B9847D2E707211E4818
:10997000134B9847104B1B7807247F2B09D80E4FA9
:109980001A4E114D7B68195D3000A847013CF9D291
:10999000C7E7094E73685978144D28000A4CA04750
:1099A000736819782800A047BBE7034B1B789B0717
:1099B000C0D10334BEE7C0467C37002028A3010095
:1099C00051F9000060A301001589010074A3010092
:1099D0006C37002031FA000048AD0100318A0100E7
:1099E0001CA3010044A3010068A3010070A30100AF
:1099F00010B5014B984710BDE5A8000070B50500F3
:109A00000448054CA04729000448A0470448054BDA
:109A1000984770BD40A0010015890100FC9F01001E
:109A200058A00100318A010010B50448044B984742
:109A3000012200210348044B984710BD78A3010080
:109A4000318A01008CA3010041A9000010B504482F
:109A5000044B9847012200210348044B984710BD4E
:109A6000949F0100318A0100A89F010041A90000D4
:109A700010B582B004000A4B98472378A27801926F
:109A800062780092074A41210748084CA047084BDA
:109A900098479620C000074B984702B010BDC046BB
:109AA000ADA80000D8A30100C8250020858C0100C6
:109AB000C9A800001947000010B5012805D00022F0
:109AC00000210548054B984710BD0022002104489D
:109AD000024B9847F8E7C046B4A3010041A9000033
:109AE0009CA3010010B5194B1B6ADB000ED4184B68
:109AF0001B780020002B00D010BD0122144B1A70DF
:109B0000144B9847144B18600120F5E70F4B1B6A64
:109B10005B020DD40E4B1B780020002BECD10122F0
:109B20000B4B1A700B4B98470B4B18600220E3E766
:109B3000084B9847084B1968084B9847084B9842C0
:109B400002D90022024B1A700020D5E700280040FD
:109B5000AC250020F1F60000B025002051F70000F0
:109B6000FF3F000030B583B001AC00232370012219
:109B70006270A37021001620044DA8472100062022
:109B8000A84721000720A84703B030BD715100004D
:109B900010B5024B9847002010BDC0468DA80000AC
:109BA00010B5064B9847C31D054A01381978117046
:109BB000013B01328342F9D110BDC0464914010076
:109BC0002000002070B5114B9847114B9847012297
:109BD000104B1A70BFF35F8F62B60F4B98470F4B55
:109BE00098470F4B98470F4B98470F4B98470F4B91
:109BF000984700200E4B98470E4B98470E4E0F4D3E
:109C00000F4CB047A847A047FBE7C046E1710000F2
:109C1000AD46000014000020A1A8000005F80000D7
:109C2000A19B00000109010005980000659B000050
:109C3000E1A50000390F0100490F01008DA80000C7
:109C40009DA2000010B50520034B9847034B1878E0
:109C5000034B984710BDC046A9C60000310600203E
:109C6000B50C010010B50A0001000A480A4B9847DC
:109C700000220A4B1A700A4B1B78002B04D0084AAA
:109C80001378013BDBB21370064B1878064B9847EC
:109C900010BDC04634A4010015890100CD07002085
:109CA000D707002031060020B50C0100F0B5CE46E4
:109CB000474680B587B0A64B9847A64B186001224F
:109CC000A54B1A70A54EA64D05E1A64B1B78012B9E
:109CD0000BD00123A44A13700021A04A1170A34A9B
:109CE00013701700A24B9846B1E00122524215337F
:109CF0006B441A80E0209F4B9847031E00D122E15D
:109D000000219D4A1170002442201700621CD2B22B
:109D1000185539780131C9B239701400D929F5D9EB
:109D2000964801780131C9B201709548029001202E
:109D300001900091162169440130924CA0470028FF
:109D400000D0D3E0904B9847D0E090489A0081181B
:109D5000CB788C78029449780191125C00928C4AFD
:109D600041218C488C4CA0478C4B98478BE00023BA
:109D70007E4A13707C4A1370894B9847002809D19A
:109D8000884B1A78754B1B789A425DD18648874B71
:109D900098475CE0E020774B9847031E00D1D2E063
:109DA0000021754A11700024552294467248621CA5
:109DB000D2B26146195501780131C9B2017014005F
:109DC000D929F4D96549097876480078884216D0AF
:109DD0006A4C20780130C0B2207089006B4C0919A0
:109DE000674C02940124019400900320654CA04725
