:10000000B05E0020317000002D7000002D700000E7
:1000100000000000000000000000000000000000E0
:100020000000000000000000000000002D70000033
:1000300000000000000000002D7000002D70000086
:100040002D7000002D7000006D4D0000A1480000D3
:100050002D7000002D7000002D7000002D7000002C
:1000600045580000555800006558000075580000BC
:1000700085580000955800002D7000002D7000007C
:100080002D700000016C0000116C00002D7000004C
:100090002D700000216C00002D7000002D700000FC
:1000A0002D7000002D700000F94700002D70000039
:1000B0000000000000000000000000000000000040
:1000C0000000000000000000000000000000000030
:1000D0000000000000000000000000000000000020
:1000E0000000000000000000000000000000000010
:10440000080001002831002000000000000000002A
:104410000700010028340020000000000000000018
:10442000060001003D3100200000000000000000F7
:1044300005004001D02F0020000000000000000017
:104440000400010010000020000000000000000037
:104450000300010011000020000000000000000027
:1044600002000200343100200000000000000000C3
:1044700001000400182400200000000000000000DB
:1044800010B5064C2378002B07D1054B002B02D02A
:10449000044800E000BF0123237010BD8800002005
:1044A0000000000008A70100084B10B5002B03D046
:1044B0000749084800E000BF07480368002B00D107
:1044C00010BD064B002BFBD09847F9E70000000019
:1044D0008C00002008A7010008A7010000000000D0
:1044E00070B50020084B98470500084CFA21890058
:1044F000A047074B186007492800A047064B1860E3
:104500000522064B1A6070BD31690000CD4C0100D8
:104510000000002040420F000400002010E000E0F6
:1045200030B5084B1C68084A002580214902013833
:1045300007D3002CFBD05460956013680B42FCD06D
:10454000F5E730BD0400002010E000E030B5084B76
:104550001C68084A002580214902013807D3002C35
:10456000FBD05460956013680B42FCD0F5E730BD7A
:104570000000002010E000E00C4B1B68002B06D16F
:10458000EFF31083002B07D00022094B1A70074A63
:10459000136801331360704772B6BFF35F8F002258
:1045A000044B1A700132024B1A70F0E7A40000208D
:1045B000A800002008000020084B1A68013A1A6081
:1045C0001B68002B09D1064B1B78002B05D001225C
:1045D000044B1A70BFF35F8F62B67047A4000020CF
:1045E000A800002008000020F0B5C64600B582B043
:1045F00001AC0125657000239846A3702570210049
:104600001320124EB047124F80231B03BB6125704D
:1046100021001220B0478023DB02BB6125702100FE
:104620000D20B04780239B017B612570210009206C
:10463000B04780239B007B61434623706570210057
:104640001C20B04702B004BC9046F0BDD14C000025
:104650000028004001230370002343708370C3705F
:1046600003710F2242718371C37103727047026834
:10467000136802210B4313607047032302685371D0
:104680000268D3710268136802218B43136070477C
:1046900070B504000D00D378037121605378437125
:1046A0001379837113789B029178C9020B43517877
:1046B00009020B43D17889000B43117949010B435F
:1046C00091798903D07940030143107A00030143B3
:1046D00052791204F020000302400A4313431E00E3
:1046E0002B689B0701D42E6070BD2000034B9847B8
:1046F0002E602000024B9847F6E7C0467B4600003C
:104700006F46000070B5054CE56980239B012B4383
:10471000E36101230B60024B984770BD0004004029
:104720009146000070B54379012B05D0002B10D0C5
:10473000022B0DD1082500E00625002310C99A1C84
:1047400092000668B446624454600133AB42F5D32C
:1047500070BD0425F1E7FFFF10B500230268137256
:104760000F4B426813400F4A93420AD00379032B40
:104770000ED00C001034036804C99A638C42FAD13D
:1047800010BD03680A689A6303684A689A63F7E78A
:104790008379023B012BECD803680A689A63EFE740
:1047A000FF00FF0003000100002302681372104B9A
:1047B000426813400F4A93420AD00379032B0ED06C
:1047C0000A00103203689B6B08C18A42FAD1704715
:1047D00003689B6B0B6003689B6B4B60F7E7837907
:1047E000023B012BECD803689B6B0B60EFE7C046E4
:1047F000FF00FF000300010010B50C4BDC79E4B2B0
:10480000E30707D50A4B1B68002B0DD00121074A8F
:10481000D1719847A30707D5054B1B68002B03D020
:104820000221024AD171984710BDC04600340042AF
:10483000AC0000201723002A01D0180070478B001D
:10484000064A9B58002B03D0834205D01D23F4E772
:10485000890088500023F0E70023EEE714210020B0
:104860001723002901D01800704700221F2800D804
:10487000024A0123834013610023F4E7002400402F
:104880001723002901D01800704700221F2800D8E4
:10489000024A01238340D3600023F4E70024004050
:1048A00070B50022104B1A70002310491F25104EBE
:1048B0000D4C0AE00D4908E023780133DBB2237088
:1048C0000F2B10D800211F2BF4D9280018400122EB
:1048D000824048691042EFD04A619B009B59002BEF
:1048E000EAD09847E8E770BD10210020002400407E
:1048F00014210020064A137802210B431370012073
:1049000053681942FCD153681842F9D17047C04628
:1049100000240040064A137802218B4313700120C3
:1049200053681942FCD153681842F9D17047C04608
:104930000024004010B5124A516980239B000B43AC
:104940005361104A137801210B4313700131012088
:1049500053681942FCD153681842F9D1094A1378B7
:1049600010210B431370084B19004031002204C37F
:104970008B42FCD10822054B1A60054B984710BDAD
:1049800000040040002400401421002000E100E069
:10499000F548000000230360436001220272837225
:1049A0000132C27243727047F0B583B005000C004B
:1049B0001C4B984701A900234B70CB7023790B70D7
:1049C000237A8B702078184B984700211F2D00D830
:1049D000164907222A409200E77AA37A002B01D0D9
:1049E00008231F43EB089B00CB18D8690F2696407D
:1049F000B04397403A000243DA61637A002B0BD14F
:104A00008A690123AB40DB431B041B0C13408B6101
:104A1000074B984703B0F0BD8A690123AB401343AD
:104A20008B61F5E715490000096B00000024004088
:104A3000F548000010B51E4A936904210B439361A9
:104A40001C4B2022FF321A831A7D0523D20701D482
:104A5000180010BD03781B02C02292001340417859
:104A6000C901FF220A401343817849001E220A40EF
:104A70001343C27892048021C9020A401343027989
:104A80001204C02189020A4013430A4A5360936802
:104A90005B035B0F084908249C400C8093684B80A3
:104AA00043780B71138BDB05DB0F1B01D0E7C0468E
:104AB0000004004000400041B400002030B5040074
:104AC000254A1088538843438B420BD2802292019F
:104AD000224BCB18934205D9214A1820214BCB18E1
:104AE00093420ED8204B5D688022D2022A435A603E
:104AF0002022FF321A831B7DDB0703D41A4B5D6033
:104B0000052030BD452C22D8A300184AD3589F4613
:104B1000154B1B8BDB0503D5134B5D601020F0E7B5
:104B200089084900104BD96103E0890849000E4B00
:104B3000D961A520000204430B4B1C8019000122FF
:104B40000B7D1342FCD0084B5D600020D9E7064B7B
:104B50005D601720D5E7C046B400002000C07FFF8D
:104B6000FF1F00000000C0FF004000411492010040
:104B7000F8B52F4B1C885B886343834207D22D4EC8
:104B800018252D4BC318B34206D8012600E0002695
:104B9000631E1825184201D02800F8BD013D94423B
:104BA000FAD3264B1B7D123DDB07F5D5244C234B56
:104BB0001C801D0001242B7D2342FCD02024FF34C7
:104BC0001E4B1C83002A2CD0012305009D4300238B
:104BD000541EA44609E0CF187F783F023C432C8046
:104BE00002339BB202359A4204D9CC5C6345F2DBB6
:104BF000A4B2F4E70E4B1B790025002BCCD13F2A41
:104C0000CAD8002E06D10022010004200D4B98477F
:104C10000500C1E7002201001C200A4B984705004F
:104C2000BAE7034B1B790025002BEAD0B4E7C04656
:104C3000B4000020FF1F00000000C0FF0040004142
:104C400044A5FFFFBD4A000010B51B4A13885288D7
:104C50005A43824207D2194C182219494118A142DD
:104C600007D8012100E000219B00013B18221842D7
:104C700001D0100010BD134B1B7D133ADB07F8D594
:104C8000104B2022FF321A8380084000D86100298F
:104C90000FD10D4A0B4B1A80190001220B7D1342D4
:104CA000FCD0084B1A8B1C200240501E82419200FF
:104CB000DFE7064AEEE7C046B4000020FF1F000011
:104CC0000000C0FF0040004102A500001AA500003E
:104CD00000B583B001AB80221A700A785A704A7806
:104CE0009A708A78DA701900014B984703B000BDBA
:104CF000096B000003681869431E9841C0B27047F1
:104D000070B504000668084D2000A8470028FBD1B4
:104D10002379002B04D00020012B00D1B06970BD95
:104D2000308B80B2FBE7C046F54C000010B502683E
:104D30000A2910D0072911D980235B000C00083CF8
:104D4000A340C024A40023401381C38E01228A40C3
:104D50009343C38610BD044B1381F6E701248C40B6
:104D6000FF2323401381F0E70080FFFFF8B5DE4604
:104D700057464E464546E0B52B4B1B689A461E6883
:104D8000DB8E5246928E1A409046B2897389134048
:104D90001AB2002A08DBFF271F402AD00024012373
:104DA0009946FE339B4614E043465B0507D41F4BF0
:104DB000B3813CBC90469946A246AB46F8BD5346EB
:104DC0001B6B9847F3E75B461D40B5810134082C07
:104DD000EFD023004D46A5402F42F4D04246224159
:104DE00049461142EFD002339B0052469B589847E8
:104DF000E9E7DA050AD54346DB0503D480235B00E7
:104E0000B381D6E753469B6A9847F7E79B05D0D511
:104E100043469B0503D480239B00B381C9E75346D7
:104E2000DB6A9847F7E7C046542100200080FFFF67
:104E300001680722CB691A42FCD17047F0B5D6460B
:104E40004F464646C0B58AB007000E0014003960D0
:104E500008009C4B9847052800D12BE1050012352E
:104E6000994AD169012383400B43D36109A9237B6C
:104E70000B70EDB22800954B98472800944B98474B
:104E8000207B0021934B984733681C209B0705D556
:104E90000AB01CBC90469946A246F0BD336817384C
:104EA000DB07F5D4142333603B6898461800854B24
:104EB00098470500802308AA13700023537001222D
:104EC00008A98A70CB70E069266A002800D1AEE09C
:104ED00008AB1870022308AA5370000CC0B211006E
:104EE0007D4B9847002E00D1A6E008AB1E70022330
:104EF00008AA5370360CF0B21100774B9847A38A7A
:104F0000FB80E38A3B81237E8022002B04D1734BFC
:104F10009B789B07DB0FDA01A16823690B431343DE
:104F20002422A25C002A02D08022D2051343A26A66
:104F300013432C22A25C002A03D1802292049142C6
:104F400002D18022120513432D22A25C002A02D036
:104F50008022120413432E22A25C002A02D0802257
:104F6000D203134342461268134342461360802320
:104F70005B0053601235E8B2594B98470790FA230B
:104F80009B0022685A43914663689A46554DA8474C
:104F9000009001914B465800A84702900391208E43
:104FA000A84704900591504F504A514B00980199E1
:104FB000B84702000B0004980599B8474D4E0022EF
:104FC0004D4BB047049005914846A84702000B009E
:104FD00004980599B84702000B00484D00980199C4
:104FE000A847029A039BB0470022454BA847029A64
:104FF000039B444DA847444B9847050080239B04DE
:10500000A2689A421ED003004020FF2D00D93FE73E
:1050100000240020FF251D40240625430004FF2313
:105020001B04184005434346DD60002030E70021A3
:105030004046364B98474BE701214046334B984753
:10504000060052E7FA26B60053465E4300980199DF
:1050500002000B00274CA047009001913000214B2B
:10506000984700222A4BB84702000B00009801998C
:10507000244CA0470022224B204CA047224B9847AB
:10508000041E0CD031000798224B98470238001BB1
:105090002B00FF2D0CD8FF28BCD94020F8E671006A
:1050A000481E079B9C4660441A4B98470138EFE71F
:1050B0004020EDE6044A136A02210B4313621825CF
:1050C000D4E6C0469D570000000400400D6A000071
:1050D0009D690000F5550000096B000000200041AB
:1050E000316A0000F17B0100D96F010095D626E8F6
:1050F0000B2E113E5161010000002440D9740100C3
:105100000000F03F71670100057B0100415600007F
:1051100000000840CD4C0100F8B504000768084EB7
:10512000B04725682000B04783232B752B762B686A
:10513000022293432B602000B04701233B60F8BD5F
:10514000314E000003681A7E920707D502221A76B4
:105150005B8B9B074120DB17184070475A8B520727
:1051600006D55968C02292020A435A601820F4E713
:105170000020F2E730B50268002301240225117EE9
:1051800021420BD1117E294206D101339BB2018904
:105190009942F4D8122002E0002000E0002030BD47
:1051A00010B5046862688023DB02134363606162A8
:1051B000024B98470123237610BDC046755100006D
:1051C000F0B5DE4657464E464546E0B583B006008C
:1051D000894605684C882B681B01DB0F9A464B7A81
:1051E000002B2BD16B68584A13406B604B461B7ADF
:1051F000002B27D14B461B885B004A46527A92030C
:105200001343012213436B623000504B98470190C7
:105210005346002B03D04B465B88012B3BD06B6879
:10522000494A13406B60019B002B3AD0019803B0B0
:105230003CBC90469946A246AB46F0BD897A444BA9
:105240009847CFE74B461B885B004A46527A920349
:1052500013438022120213436B6230003B4B98478A
:1052600001906B68384A13406B600028DED1300033
:10527000384B984701900028D8D14B461B881B0A11
:10528000782213435B004A46527A920301210A4373
:1052900013436B62B8E76A688023DB0213436B60D9
:1052A000C1E730002B4B984701900028BED1013C4C
:1052B000A4B28046284B9B4615E0012C20D030003C
:1052C000264B984743465F1CBFB22823EB5C4A46F7
:1052D00052684146535430001C4B9847013CA4B2DD
:1052E000002815D1B8465C4514D06B8B9B0627D59A
:1052F000F37A002BE3D05346002BDED1002CDED115
:105300006A688023DB0213436B60013CA4B2EAE7C6
:10531000B8460190B37A002B09D130000F4B984763
:105320002823EA5C4B465B6841465A547EE73000CE
:105330000A4B98476A68C0239B0213436B60ECE7F3
:105340004123019372E7C046FFFFFBFF7551000048
:10535000A151000045510000FFFF0000314E000048
:10536000F0B5DE4657464E464546E0B583B00600EA
:105370000F0005684C88324B98477B7A002B1DD173
:105380006B68304A13406B603B7A002B1BD03B8824
:105390005B007A7A920313438022120213436B62FA
:1053A0003000294B98470190002813D0019803B092
:1053B0003CBC90469946A246AB46F0BDB97A300057
:1053C000224B9847DCE73B885B007A7A92031343D1
:1053D0006B62E5E730001E4B9847031E0190E5D154
:1053E000A046002420339946154B9B46164B9A46FF
:1053F000444515D06B8B4A4613421DD03000D84728
:105400007B681A5D2823EA543000D047002806D173
:105410006B8B01345B07EBD51E23019300E00190F9
:10542000B37A002BC2D03000054B98476A68C0237E
:105430009B0213436B60B9E741230193B6E7C04673
:10544000314E0000FFFFFBFF75510000A15100002D
:105450004551000010B501238372C372014B984778
:1054600010BDC046C151000010B500238372013346
:10547000C372014B984710BD61530000F0B5DE4682
:1054800057464E464546E0B587B080460491160023
:105490001F000022002300218B463F240120210011
:1054A000009601975C4603944446059413E020243B
:1054B000641A0500E540A84614E0009C019D121BFB
:1054C000AB415C464D462C43A346039C45462C43CA
:1054D0000394013925D3202464420C19E7D4050034
:1054E000A540A84604008C40A14692185B411400D8
:1054F0001D00059E4F463E40B446049E47463E4032
:10550000B246664657463E4303D006002643320065
:105510002B00009C019D9D42DBD8CED19442D8D86F
:10552000CBE7039B5846190007B03CBC9046994610
:10553000A246AB46F0BD10B5490840230024814285
:1055400002D2180010BD1C00091A631C9BB28842CD
:10555000F9D94023FF2CF4D814800023F1E7FFFF92
:10556000F0B583B00F00160008AA117804004C4370
:105570004022BC4202D9100003B0F0BD002B14D170
:10558000020008000021194CA04701003A00002346
:105590000020174CA04700220123121A8B41120C45
:1055A0001B041A4332800022E5E70022012BF9D1C7
:1055B0000A00002300210D4CA04702000B000092BE
:1055C0000193380000210A4CA047050080239B016D
:1055D00040229842CFD8790FF800009A019BA0474B
:1055E000EA00821AD2B252032A43DBE7E9500100F3
:1055F0007D54000010B582B004000E4B1B78002BC8
:1056000007D0002905D10B4B5B78834210D01D20B9
:105610000CE001A90C701120074B98471120074B93
:105620009847044B5C7001221A70002002B010BD34
:105630000020FBE7BC0000200D6A00009D6900000F
:105640003C4B984232D00AD93B4B98424ED03B4B10
:10565000984255D03A4B984238D000207047842366
:10566000DB0598420CD0374B9842F6D1012917D070
:10567000002957D0022915D0032915D00020EDE7C5
:10568000012907D000294BD0022905D0032905D0D4
:105690000020E3E72C48E1E72C48DFE72C48DDE772
:1056A0002C48DBE72C48D9E72C48D7E7012907D05D
:1056B000002939D0022905D0032905D00020CDE7E3
:1056C0002748CBE72748C9E72748C7E7012907D07C
:1056D00000292BD0022905D0032905D00020BDE7E1
:1056E0002248BBE72248B9E72248B7E7022903D09E
:1056F000032903D00020B1E71F48AFE71F48ADE7FB
:10570000012907D0002913D0022905D0032905D08B
:105710000020A3E71A48A1E71A489FE71A489DE727
:105720001A489BE7032099E7194897E7194895E736
:10573000194893E7000800420010004200040043AB
:10574000000C0042000400420300050003000600B4
:10575000030007000300010003001E0003001F00F8
:105760000300090003000A0003000B0003001100FE
:10577000030012000300130003000E0003000F00DB
:1057800003001700030018000300190003000400C1
:1057900003000800030010000300160030B587B0B6
:1057A0000B4B6A4632CB32C232CB32C2009B8342B1
:1057B0000BD001239A0069465258824206D0013329
:1057C000062BF7D1002007B030BD0023D8B2FAE78E
:1057D0002C9301007047FFFFF0B50A4B1B78002B9C
:1057E0000CD1094F094E0A4D0024DE515A1914609C
:1057F0000433182BF9D10122024B1A708000024B9E
:10580000C150F0BDBE000020C0000020D5570000F0
:105810005821002000B583B008236A461370013375
:105820005370013393700133D3700133137101331B
:105830005371034B98476B46185603B000BDC046E2
:105840009D57000010B5024B1B680020984710BD03
:10585000C000002010B5024B5B680120984710BDC6
:10586000C000002010B5024B9B680220984710BD75
:10587000C000002010B5024BDB680320984710BD24
:10588000C000002010B5024B1B690420984710BDD2
:10589000C000002010B5024B5B690520984710BD81
:1058A000C0000020F0B5D6464F464646C0B58AB087
:1058B00006000F00140031600B689B070AD40B68C8
:1058C0000520DB0700D4AFE00AB01CBC9046994627
:1058D000A246F0BD936A0593D36A0693136B0793B0
:1058E000536B089300250AE03800B64B98470EE04A
:1058F0000F231840814530D10135042D31D0E9B254
:10590000AB0002AA0C201218D0580028ECD0431C7F
:10591000F2D001040B0C9946000CC3B29C46002344
:10592000020605D463465B09DB01A74A904643445F
:105930001F2260460240981840300078824680203E
:105940005146C907D6D552089B1830331878C0B2D3
:105950006346DB07CCD50009CCE7002333601C206D
:10596000B2E71120994B984722780025012A16D0DA
:105970002178002927D13B68E27F1204A07F0243EF
:105980001C209A42A0D1A369A28B0430205C00287D
:1059900001D040200243082003431D4314E004AA21
:1059A0000100A0698A4B984703001720002B00D004
:1059B0008AE73B7BDBB204AA127805309A4200D01A
:1059C00082E70C35D4E700226368A0680343E068EF
:1059D00003432B43207C0243607C002801D08020BD
:1059E0000343A07C002802D0802080020243E07C98
:1059F000002802D0802080000243207D002802D0B1
:105A0000802080010243386802252B43834203D063
:105A1000002333601C2057E77B689342F8D17171F3
:105A2000237CB37100204FE708006A4B9847052894
:105A300000D1BFE0030012336749CD6901228240E3
:105A40002A43CA6109A92425625D0A70DBB2019369
:105A50001800624B98470198614B9847605D0021A0
:105A6000604B98472378012B20D02378002B03D15B
:105A70003B68082213433B603368984604AB80229E
:105A80001A7000225A7001219970DA702378002B65
:105A900001D104AB9A70A36A0593E36A0693236B62
:105AA0000793636B0893002705AD11E03B680C2258
:105AB00013433B60D9E74046424B98470DE004A9A9
:105AC0000870000CC0B2484B98470137042F07D02C
:105AD000F9B2BB0058590028EDD0431CEFD1F4E7D0
:105AE00023787371237CB371A37CF371237D3372AC
:105AF000002202ABDA802378012B14D02378002B0C
:105B000029D1A069A28B43465B6AE17F0904A57F86
:105B100029431943434659622023E35C002B1CD0E0
:105B200040231A4319E030682A4B98471230C0B21C
:105B3000264B9847010002AB9A1DA069244B984759
:105B400003001720002B00D0BEE602AB06331B7803
:105B500042461373D2E7002200206368A1680B431A
:105B6000E1680B430343217C0A43617C002903D194
:105B70001E498978890701D580210B43A17C002922
:105B800002D0802189020A43E17C002902D08021D1
:105B900089000A43217D002902D0802189010A431E
:105BA000414609680B4341460B604B681A434A6003
:105BB000002089E6084A136A02210B431362182366
:105BC00040E7C0464156000000280040316A00000E
:105BD000375500009D570000000400400D6A00008A
:105BE0009D690000F5550000096B00000020004190
:105BF00010B544791523012C01D0180010BD047A8A
:105C00000023002CF9D1002A58D04B78002B44D027
:105C100003681B7EDB0710D40A78D1090023002912
:105C200004D15309DB012E498C4663441F211140E6
:105C300001228A409A610523DFE70A78D40900230C
:105C4000002C04D15309DB01254CA44663441F24D6
:105C500014400122A2405A6103681A7ED20701D57E
:105C60008A789A62C2790023002AC6D10268042188
:105C7000137E0B42FCD0117E00234907BDD5538B08
:105C80005B0701D5042353838379012B02D0936AE8
:105C90000023B2E7936A0023AFE70A78D109002313
:105CA000002904D15309DB010D498C4663441F21AF
:105CB000114001228A405A6100239EE70A78D109E7
:105CC0000023002904D15309DB0105498C466344B4
:105CD0001F21114001228A409A6100238DE7C046AE
:105CE00000280040F0B5DE4657464E464546E0B532
:105CF00091B005000C00160029600800C64B9847BB
:105D0000020005280DD00700123703002168052086
:105D1000C90709D511B03CBC90469946A246AB468E
:105D2000F0BD18270123F1E7216817308907F1D466
:105D3000052A49D0B949C86901229A401300034392
:105D4000CB610FA92D239846F35C0B70FFB238008E
:105D5000B34B98473800B34B98474346F05C00215B
:105D6000B14B9847F37A6B712423F35CAB71252315
:105D7000F35CEB71F37E2B72337F6B722B6898466A
:105D80001800A54B9847052826D0123000220E2374
:105D900006A98C4663441A80328A02928023DB0172
:105DA0009A4200D1ABE019D9C023DB01029A9A4292
:105DB00000D19FE080231B029A4200D027E10323F9
:105DC00006930023079312E09449086A043A9A4024
:105DD000130003430B62B4E71820D7E780239B012D
:105DE0009A4200D013E1102306930F3B07933368C8
:105DF0000593F368039373690493337E9B462623CC
:105E0000F35C9A4673689946002B00D19FE080238B
:105E10005B05994504D12723F35C002B00D184E076
:105E2000737E002B02D0B37E424693732A68029F92
:105E3000D369002BFCD10E3306AA944663441B8819
:105E400042469381059B039A1343049A13434A469F
:105E500013431F435B461B021F4353465B071F430D
:105E60002723F35C002B01D104331F43737E9B0275
:105E7000327F52021343727F120213432422B25C18
:105E8000520413432522B25C12041343B17AF27A0E
:105E9000114319433389FF2B7DD0802252041743CD
:105EA00019432C23F35C002B03D1604B9B789B0799
:105EB00001D580231F432A68D369002BFCD14346B8
:105EC00059602A68D369002BFCD143461F600EAB92
:105ED00080221A7000225A70DA709A70336B0A931B
:105EE000736B0B93B36B0C93F36B02930D930027BF
:105EF0000AAE5EE008230693073B079377E7336813
:105F00000593F368039373690493337E9B462623BA
:105F1000F35C9A4673689946002B14D080235B0586
:105F2000994500D177E7002020E0336A1F00C0B216
:105F30003F4B984701000E2206AB9C466244380056
:105F40003C4B984712E0082306930023079327232E
:105F5000F35C002B0ED0069B0093079B0E2206A934
:105F60008C466244B16A306A334FB847002800D08B
:105F7000D0E655E7336A1F00C0B22D4B98470100A9
:105F8000069B0093079B0E2206A8844662443800B5
:105F9000294FB847EAE7F37E002B82D08023DB0449
:105FA0001F437EE72000254B984707E00137042F69
:105FB0000DD0F9B2BB0098590028F3D0431CF5D09E
:105FC0000EA90870000CC0B21D4B9847EEE70023E5
:105FD000EB602B616B61AB61EB612B62AB626B625F
:105FE0000022EB85AB853033EA540133EA540133A8
:105FF000EA540133EA542868074B984704001149D2
:10600000114B9847A400114BE550002082E6102365
:10601000069300230793EAE69D5700000004004022
:106020000D6A00009D690000F55500000020004148
:10603000316A0000375500006155000041560000EC
:10604000096B000045620000D9570000582100206C
:10605000C2791C23002A01D118007047C28D92B268
:10606000173B002AF8D10368DA69002AFCD11985A8
:1060700002211A7E0A42FCD00023EDE782791C231C
:10608000002A01D118007047828D92B2173B002A76
:10609000F8D10268107E4007F4D5D369002BFCD1FB
:1060A000538BDBB298061DD0980703D50223538388
:1060B0001833E7E7580703D5042353831A33E1E77E
:1060C000D80703D5012353831233DBE7D80603D562
:1060D000102353833233D5E79B0603D52023538304
:1060E0002133CFE7138D0B800023CBE7F0B5CE46ED
:1060F000474680B583B0050001911720002A04D1DE
:1061000003B00CBC90469946F0BDEB790530002BEE
:10611000F6D02C68E369002BFCD1013A93B2994682
:10612000002601271F4B984611E0731C9BB2019A71
:10613000915D6A79012A17D089B21E0028001A4B96
:1061400098474B46013B9BB29946434513D0237E6B
:106150003B42EAD1134B227E3A42E6D1012B19D0C1
:10616000013B002BF7D1E0E70236B6B2019AD35CCF
:106170001B021943E2E7237E9B070DD4094B022142
:10618000227E0A420AD1012B0AD0013B002BF7D113
:106190000020B5E71220B3E70020B1E70020AFE709
:1061A0001220ADE7FFFF000051600000F0B5D646B9
:1061B00000B584B0040001911720002A03D104B077
:1061C00004BC9246F0BDA3790530002BF7D02668B9
:1061D000013A93B29A460025042719E0002302AA47
:1061E000D380911D2000154B98470028E7D1691CEA
:1061F00089B202ABDB88019A53556279012A14D027
:106200000D005346013B9BB29A460D4B9A45D6D0A2
:10621000337E3B42E2D10A4B327E3A42DED1012B41
:1062200009D0013B002BF7D1D8E70235ADB21B0AEC
:10623000019A5354E5E71220C1E7C0467D60000093
:10624000FFFF0000F8B58000624BC5582C68E36979
:10625000002BFCD1237EA67D1E403023EB5C312237
:10626000AF5C1F40F30722D5EB8D9BB2002B1CD0F7
:10627000AA6A1378DBB2511CA962697901290ED090
:106280009BB2DB05DB0D2385EB8D013B9BB2EB85E0
:10629000002B0CD1013323750133A37507E051782E
:1062A00009020B430232AA62EBE701232375B3070D
:1062B00006D50223237500223133EA54FB071AD492
:1062C000730765D5AB8D9BB2002B5FD0638BDBB2C0
:1062D0001A0714D43F221340002B34D09A0711D54B
:1062E0001A223223EA54303B63837B0750D52800BF
:1062F0006B6998474CE02800EB689847E0E7372245
:106300001340E9E75A0705D51E223223EA542E3BF3
:106310006383EAE7DA0705D513223223EA54313BD7
:106320006383E2E7DA0605D542223223EA54223BB0
:106330006383DAE720221A42D7D021323223EA548B
:10634000123B6383D1E7238DDB05DB0DDAB2696A8B
:106350000A706A6A511C69626979012910D0AB8D93
:10636000013B9BB2AB85002B12D104332375002275
:106370002E33EA54BB070BD528002B69984707E05A
:106380001B0A53706B6A01336B62E8E704232375C1
:10639000F30604D5102323752376FB060ED4B3062B
:1063A00004D52023237523763B070BD4330704D56C
:1063B000082323752376BB0608D4F8BD2800EB69B3
:1063C0009847ECE72800AB699847EFE72B6A28006D
:1063D0009847F2E75821002010B5082803D880001C
:1063E0001C4B1B589F46002032E01B4B18692FE0C6
:1063F0001A4B187D0007800F431C1948584327E0AB
:10640000154B586924E0144B1B6800209B071FD5CF
:10641000124980225200CB681342FCD00E4B1B68FD
:106420005B0701D40F4813E000200F4B98470A4B3D
:106430009B681B041B0C58430AE02823074AD35CC3
:1064400000209B0704D5044BD86801E0802000029F
:1064500010BDC04644930100D8000020000C00404D
:1064600000093D00006CDC02316A000070B50B4C85
:10647000237D8578467802780321114089000C221B
:1064800093430B430B3A3240920140218B43134319
:10649000ED017F2213402B43237570BD000C00409B
:1064A000F0B5D6464F464646C0B5204B9A465B6986
:1064B000457801784C424C41A14681788C46C178A0
:1064C0008846467A077A847A4068194948610121EA
:1064D0004846800004229343034340460840C000DE
:1064E000043293430343604608400001083293435B
:1064F00003430F40BF01402083433B430E40F6015E
:10650000403083433343793805402D020948034026
:106510002B4321400903084803400B435246536173
:106520001CBC90469946A246F0BDC04600100040F3
:10653000D8000020FFF8FFFFFFEFFFFF082803D877
:106540008000294B1B589F4617204BE0274A137D9C
:1065500002210B431375002044E0254A9369022170
:106560000B43936100203DE0204A138A02210B4334
:106570001382002036E01E4A536902210B43536107
:1065800000202FE01B490B68022213430B60174BBE
:106590001A831900FE32CB681342FCD0154A916869
:1065A000124B19625268DA6100221A831900013213
:1065B000FF32CB681342FCD00E4B1B689BB20B4AD8
:1065C000138300200EE0094928228B5C022003433C
:1065D0008B5408003821263A435C1342FCD100203A
:1065E00000E000207047C04668930100000C0040A6
:1065F00000100040D8000020082832D880001A4B34
:106600001B589F46194A137D02218B4313750020A6
:106610007047174A936902218B4393610020F7E783
:10662000124A138A02218B4313820020F0E7104A9A
:10663000536902218B4353610020E9E70D4B1A682F
:1066400002218A431A601B689BB2084A1383002008
:10665000DEE7064928228B5C022083438B5400200E
:10666000D6E71720D4E7C0468C930100000C004009
:1066700000100040D8000020F0B5D6464F464646F0
:10668000C0B588B080225200564B9A60FD3A564BF6
:106690009A60564A53681E218B431A390B43536044
:1066A0008023DB059B78022B0FD08023DB059B78B2
:1066B0005BB2002B09DB8023DB0501229A710132DA
:1066C0009A701A009379002BFCD005A80023037060
:1066D00080221202426083700122C27003728372B0
:1066E000033242704372424B98470520414B984712
:1066F00041490122CB681A42FCD03F4A53698021AC
:106700000B43536102A901254D6000244C700C72AB
:106710004C7203230B700020384B98470620384BEF
:10672000984701A8447005708470364B984706203E
:10673000304B98472B491022CB681A42FCD002AC50
:10674000012666600025657006239A46237025722F
:10675000657221000020294B984698472A4B98479C
:106760006660657065720523237026722100012022
:10677000C0470120254B99469847254FBE717E7131
:106780003E71666065705346237025726572210004
:106790000020C0470020C84700201E4B9847397989
:1067A000C9B21D4B98471D4B984214D88023DB0576
:1067B0009B78002B0FD08023DB059B785BB2002BEE
:1067C00009DB8023DB0501229A7100229A701A00EE
:1067D0009379002BFCD008B01CBC90469946A24689
:1067E000F0BDC046000C00400014004000400041D5
:1067F000A16400003D6500000010004045680000F5
:10680000F96500006D64000021680000F168000077
:106810000004004031690000CD4C0100001BB700AE
:10682000064A536940210B4353610122044B1A70FD
:1068300019000B781342FCD17047C0460004004099
:106840000018004070B504000D784B78002B02D082
:106850008023DB001D434B7A002B02D080231B01D9
:106860001D43486801280FD9431E184231D1022820
:106870002DD90223002201325B009842FBD88023ED
:106880005B011D43120415430B7A002B02D08023B9
:106890009B011D430426A6401149124A4B68134030
:1068A0001E42FBD1104B9847A4000D4B9C466444FC
:1068B000226A80235B001A402A4322626146094A09
:1068C0004B6813401E42FBD1084B984770BD002215
:1068D000D5E7000480239B0018430543D4E7C04656
:1068E00000180040FC07000079450000B945000091
:1068F00010B504000422824009480A4943680B404D
:106900001A42FBD1084B9847A400054B9C466444AF
:10691000226A80235B0013432362044B984710BD17
:1069200000180040FC07000079450000B945000050
:10693000F8B50400042282401248134943680B4012
:106940001A42FBD1114B98470E4F0834A400E0596E
:106950000007000F0E4B98470600E559ED04ED0FB8
:10696000E459240C0B4B9847002D07D1012C07D973
:1069700021003000084B9847060001E00134E64052
:106980003000F8BD00180040FC0700007945000009
:10699000D9630000B9450000CD4C010010B50400DA
:1069A000094B9847A000094B9C46604480228358BD
:1069B00040210B4383504031403A43581A42FCD0A7
:1069C000034B984710BDC0467945000000180040B1
:1069D000B945000010B50400094B9847A000094BC9
:1069E0009C4660448022835840218B438350403131
:1069F000403A43581A42FCD1034B984710BDC04659
:106A00007945000000180040B945000070B5040049
:106A10000D00054B98472A780F2313402034A4001B
:106A2000024AA35070BDC046D5690000001800405E
:106A300010B50400064B98472034A400054BE458D9
:106A40002407240F044B98472000044B984710BD9F
:106A50007945000000180040B94500003169000088
:106A600030B5D378002B35D11378802B29D01B0675
:106A700080246402234354780225AC4306D19478E1
:106A8000002C20D18024A402234341605478013C8F
:106A9000012C1CD90D042D0CA024E4052C431C430F
:106AA00084620D0CD02424062C431C438462D478C9
:106AB000002C22D15B031CD59378012B1ED04161A1
:106AC00017E00023D7E7C024E4022343DDE70D4CA1
:106AD0002340DFE741600C04240CA023DB052343A3
:106AE00083620C0CD0231B0623438362D378002BD4
:106AF00003D15378013B012B02D930BD8161F8E706
:106B00008160FAE7FFFFFBFF10B50A00C10900230F
:106B1000002904D14309DB0105498C4663441F2445
:106B20002040012181401800024B984710BDC0460B
:106B300000280040616A00007047FFFF10B5054B58
:106B40009847054B9847054B9847054B9847054B89
:106B5000984710BD79660000E9450000396B0000D8
:106B600035490000396B0000931C9B001950022A24
:106B700009D0032A0CD0012393401A00037E13434B
:106B8000037600207047037E102213430376F8E754
:106B9000037E202213430376F3E7FFFF70B58000E6
:106BA000164BC45823689D7A227E637E13401D4095
:106BB000EB0706D4AB070BD4EB0610D4AB0615D409
:106BC00070BD2000A3689847012322689372F1E703
:106BD0002000E3689847022322689372ECE72000C4
:106BE00023699847102322689372E7E720006369BE
:106BF0009847236820229A72E2E7C046702100205D
:106C000010B50020014B984710BDC0469D6B000099
:106C100010B50120014B984710BDC0469D6B000088
:106C200010B50220014B984710BDC0469D6B000077
:106C300030B587B001A90C4B0A0032CB32C212CB5F
:106C400012C2019B98420BD0012301A99A0052580D
:106C5000824206D00133052BF8D1002007B030BDA9
:106C60000023D8B2FAE7C046D8930100F0B5C64673
:106C700000B58EB004000D0016000800AE4B98471A
:106C800080460CAB1B221A705A7001329A70DA706F
:106C900001321A7102A9A94B14330A0083CB83C2B3
:106CA00083CB83C283CB83C21B6813600023A360A2
:106CB000E360236163612376637643469A00A04BC9
:106CC000D45025603423F35CA376F378082B08D0E6
:106CD00023712B680520DB0708D50EB004BC904655
:106CE000F0BD17204246D207F7D4F1E7EB7A173010
:106CF0009B07F2D42B689B07EFD4337C002B12D177
:106D0000337F002B1BD143465A0002A9531C9B0022
:106D100058584346DB005B58D9B2042923D88B006E
:106D20008849CB589F4601A901238B700022CA7065
:106D3000327E0A704B70307D834B9847E0E701A9A3
:106D400001238B700022CA702432B21812780A70A4
:106D50004B701F33F31818787B4B9847D3E77B4968
:106D60004B6918434861F378082B00D186E03378EB
:106D70006A4613700CAB42469F5C69463800744B00
:106D800098473800734B9847F378F2791343B288E9
:106D90001343727A002A02D0802252021343B27A3D
:106DA000002A02D0802292021343F27A002A02D0F3
:106DB000802252031343327B002A02D080229203A6
:106DC000134371788901B278D201114319432268C3
:106DD0001369002BFCD1296022681369002BFCD1B8
:106DE000B3792B73717B4B1E99418900B37B002BC8
:106DF00001D00123194322681369002BFCD1FF3312
:106E00002B71002904D022681369002BFCD1697111
:106E1000337A6B7322681369002BFCD12379042B1E
:106E200059D0082B74D01720002B00D055E71369D8
:106E3000002BFCD1338DAB8222681369002BFCD16F
:106E4000738DAB8322681369002BFCD1B38DEB8368
:106E5000002042E73D498B691843886183E73B493D
:106E6000CB691843C8617EE738490B6A184308624A
:106E700079E7364B596A0843586274E74346013351
:106E8000042B00DD73E702ABD11C8900C958023224
:106E90009200D358DAB2042A00D968E793002E4A48
:106EA000D3589F46294A5369194351615FE7274ADE
:106EB0009369194391615AE7244AD3691943D1610F
:106EC00055E7224A136A1943116250E71F4B5A6A69
:106ED000114359624BE71369002BFCD12833F35C53
:106EE0002B7522681369002BFCD12933F35CEB76F8
:106EF00022681369002BFCD12A33F35C2B772268BC
:106F00001369002BFCD12B33F35C6B770020E4E694
:106F10001369002BFCD1B36A6B6122681369002BE3
:106F2000FCD1F36AEB6122681369002BFCD1336B4F
:106F30002B620020D1E6C046316C0000D8930100DE
:106F400070210020B0930100096B00000004004094
:106F50000D6A00009D690000C49301000268136976
:106F6000002BFCD1137101680B69002BFCD180331D
:106F7000537153795BB2002BFBDB02681369002B62
:106F8000FCD10379042B05D0082B09D00020002B5D
:106F900003D07047107DC0B2FBE7908A80B2F8E75B
:106FA0005069F6E710B504682369002BFCD103791A
:106FB000042B06D0082B28D0002B13D01723180041
:106FC00010BD17230129FAD8837E002B05D0D2B239
:106FD000611830310A700023F1E7D2B264182277C9
:106FE0000023ECE717230129E9D8837E002B05D085
:106FF00092B2183149000A530023E0E792B20C31F3
:1070000049006418A2800023D9E717230129D6D8A4
:10701000837E002B05D1063189006418626000234D
:10702000CDE70C3189000A510023C8E7FEE7FFFFD6
:1070300010B51A4A1A4B9A4211D01A00194B9A42AB
:107040000DD2194A03339B1A9B0801339B0000227F
:10705000134812498C58845004329A42FAD1134A88
:10706000134B9A420AD2D34311495B1803218B4335
:1070700004339B18002102C29342FCD10D4AFF2128
:107080000D4B8B4393600D4A53687F390B4353601C
:107090000B4B98470B4B9847FEE7C04608A70100EB
:1070A0000000002084000020040000208800002050
:1070B000B03E002000ED00E0000000000040004174
:1070C000C97E0100ED930000F0B5C64600B50C0086
:1070D000904600280FD1002A11DD8F18094E0A4D65
:1070E000306821002B6898470134BC42F8D14046F3
:1070F00004BC9046F0BD01235B429846F7E780460A
:10710000F5E7C0468C21002084210020F0B5C6465A
:1071100000B50E0015000138022810D8002A11D041
:1071200000240C4B98460C4F43461868315D3B6871
:107130009847002808DB0134A542F5D106E0012478
:10714000644203E0140001E001246442200004BC16
:107150009046F0BD8C210020882100200300064AC3
:107160001268002A04D0044A1068C31813607047DC
:107170000249014A1160F6E7F0000020B05E0020ED
:1071800001204042704780239B014B6000207047E4
:10719000012070470020704700BEFEE770470120C5
:1071A0004042704730B5531EDBB2002A0BD000249A
:1071B000C5182A7852002243CA542C78E409013BAE
:1071C000DBB2FF2BF4D130BD10B584B00400110048
:1071D00010226846044B984769462000034B9847A5
:1071E000002004B010BDC0462F7F01002101010026
:1071F00010B5014B984710BDC971000000207047C1
:10720000F0B5D6464F464646C0B5A4B001900F0033
:10721000029103929A462CAB1C8808AE10220021E2
:107220003000644DA8478723F3731022002104A87F
:10723000A847019A390004A85F4B984704AB1B7814
:107240007F2B2DD8102220A904A85C4B984720AB97
:107250001B787F2B34D810221CA920A8574B9847A5
:1072600023000F331D11AAB29046002A38D02207FE
:1072700038D14246013A120196B2514F1F40BE42E8
:1072800054DA330010A920AA981B80B25446E45C5B
:10729000155C6C400C5401339BB2BB42F4DB45E0FF
:1072A000102220A904A8454B9847002320AA08A92A
:1072B000985C5D5C684098540133102BF8D1C6E7A8
:1072C00010221CA920A83D4B984700231CAA08A9FE
:1072D000985C5D5C684098540133102BF8D1BFE78F
:1072E000012398460F232000984300230F221440C7
:1072F0000CA900278026504405E0944209D05F5431
:107300000133102B07D09AB29442F6D9C25C5A547A
:10731000F6E75E54F4E7002310A80CA91CAA5C5CF5
:107320009D5C6C401C540133102BF8D110220021BD
:1073300018A8204B984701235B42434499460020FC
:107340000027002B1ADD14AD18AC1E4E00010023DF
:107350005044C25C195D4A405A550133102BF8D194
:10736000102229002000B047019A02992000124BF8
:1073700098470137BFB238004F45E7DB002314AC14
:1073800018A810A91A5C5D5C6A401A550133102BCD
:10739000F8D1019A029914A8074B9847102214A912
:1073A0000398084B9847002024B01CBC904699468F
:1073B000A246F0BD417F0100C9710000A571000027
:1073C000F0FF0F002F7F010010B50C001F2800D91F
:1073D00093E080004A4B1B589F46002010BD494B4C
:1073E0001B7E0B700020F9E7464B1B680B600020EA
:1073F000F4E7444B5B680B600020EFE7414B9B8A4E
:107400000B800020EAE722233E4AD35C0B70002069
:10741000E4E723233B4AD35C0B700020DEE72523FF
:10742000384AD35C0B700020D8E73623354AD35C4A
:107430000B700020D2E72423324AD35C0B7000206B
:10744000CCE734232F4AD35C0B700020C6E72D4BCA
:10745000DB8A0B800020C1E733232A4AD35C0B7000
:107460000020BBE7274BDB680B600020B6E7254B0D
:107470009B680B600020B1E73723224AD35C0B7076
:107480000020ABE738231F4AD35C0B700020A5E730
:1074900039231C4AD35C0B7000209FE71949212334
:1074A000CA5C19312000184B9847002096E7212329
:1074B000144AD35C0B70002090E73223114AD35654
:1074C0000B7000208AE735230E4AD35C0B70002036
:1074D00084E706220B493C3120000B4B98470020E3
:1074E0007CE75423074AD35C0B70002076E75623D1
:1074F000044AD35E0B80002070E705206EE7C0468B
:1075000014940100603800202F7F0100F0B5C646BA
:1075100000B504000D007B4B98470423012803D0DD
:10752000180004BC9046F0BD1D2C00D9E5E0A40075
:10753000754B1B599F46002D00D1E0E0734B1D6138
:107540000023EDE76C79002C1ED02E880323002E3B
:10755000E6D02F79002FE3D00222AB5E98466B4D28
:10756000FA20800070433900694B9847694B98476F
:10757000694B9847A864AE874346EB874023EF5496
:107580000133EC540023CBE7604B00229A649A87C6
:10759000DA8740320021995401329C540023BFE71E
:1075A0002A785A4B1A760023BAE72A685B4BD1181F
:1075B0005B4B99420AD95B495B4BD3188B4205D987
:1075C0005A4805235A4951188142A9D84F4B1A608D
:1075D0000023A5E72A684D4B5A600023A0E72A88BC
:1075E0004A4B9A8200239BE729782223474AD154A9
:1075F000002395E72A780523012A00D990E71E3356
:107600004249CA5400238BE72A780523012A00D96E
:1076100086E720333D49CA54002381E72A78D11FE9
:107620000523022900D97BE731333849CA540023A6
:1076300076E729782423354AD154002370E72A7845
:107640000523012A00D96BE72F333049CA540023A0
:1076500066E72A882D4BDA82002361E72A78511EDB
:107660000523032900D95BE72E332849CA54002398
:1076700056E7264B2A68DA602A68244B9A60002372
:107680004EE72A780523032A00D949E732331F49F8
:10769000CA54002344E72A78511E0523162900D92D
:1076A0003EE733331949CA54002339E72A78511E7B
:1076B0000523162900D933E734331449CA5400236B
:1076C0002EE71C48027A29001B4B9847002327E726
:1076D0002B781A1C082B00D9082221230B49CA54E5
:1076E00000231DE72A78D11F0523052900D917E7B4
:1076F00030330649CA54002312E7052310E7032359
:107700000EE7C046D9800000949401006038002044
:10771000E14D0100256001003D510100C08BD5F70E
:1077200080D54302C0C2DA0680E58FE780E36A09AC
:1077300080EC9ECC793800202F7F010010B50C4BD7
:1077400098471F200B4B98470B4901200B4CA04733
:107750000B490220A0470B490420A0470A490820F2
:10776000A0470A491020A04709492020A04710BD82
:10777000B1880000E5800000397C000021FA00009B
:10778000C97C0000517D0000B97D0000E97D00004A
:10779000197E000070B506000C4D0D49A847040085
:1077A0000B4930000B4B9847240208020849A847B0
:1077B0000419210CC9B20620074DA847210AC9B2F5
:1077C0000720A847E1B20820A84770BDCD4C0100B2
:1077D000093D0000D94D0100EDF80000F8B50500A5
:1077E000D24C3423E15C00220020D14B9847206822
:1077F000D04B98472223E3562422A25C002A25D1AD
:107800001A1C033301DACC4B1A78141C52B20F2A1B
:1078100000DD0F2466B24D20C84B9847F821014087
:10782000042001434930C64B9847002E06DB7021E7
:107830003143C9B20920C24B98472FE00334E1B26B
:10784000202421430920BE4B984727E01C1C012B14
:1078500000DC8EE063B2132B00DDAAE10B20B74FF2
:10786000B84706004D20B847F821014004200143E5
:10787000271C64B2112C00DD1127023F7FB22024A7
:107880003443E4B24D20AE4EB047802149423943E3
:10789000C9B20920B04721000B20B0473423A34AC6
:1078A000D35C012B67D0A14D6B681802A54FA64988
:1078B000B8470600010AC9B20420A14CA047F1B2A2
:1078C0000520A047A968A148B8470600010AC9B227
:1078D0000220A047F1B20320A04700215D20A0476D
:1078E000A98A090A2520A047297D2620A0479E2194
:1078F0000D20A047BF213520A0470A208F4B984775
:107900003723E95C4901293398430143C9B20A206E
:10791000A0472323EB5CC021002B00D01031302086
:10792000874B98472123814AD35C002B00D13BE150
:1079300000241500824F21262B19597E2000283063
:10794000C0B2B8470134E4B2A95DA142F4D800291D
:1079500000D129E1013910231943C9B22720784BFE
:107960009847FF213E20764CA047FF213F20A047AB
:10797000F8BD02246EE71400117E3920704EB04726
:107980003623E15C0901033BE35C5B0019432623DA
:10799000E25C253B13401943C9B21D20B0472323A5
:1079A000E35C9B00042119403523E35C1B01194370
:1079B000AB059B0F1943C9B21E20B047E28A0021D4
:1079C000002A0DD036235949CB5C082B64D0092BF3
:1079D00065D00021072B5AD03523544AD35CD940B7
:1079E000C9B22420564CA047E9B21F20A047262048
:1079F000524B984735234D4AD35C0C2B53D04B4BFD
:107A00005B6B534A1340534A934251D0F7210140D4
:107A10000420014322304A4CA0473120474B98476D
:107A2000F8210140032001432E30A0470A213720CE
:107A3000A04731233D4AD35C122B3DD033203F4B2E
:107A400098473A4D2523EB5C9B0140211940402388
:107A500098430143C9B23320394CA047A98A090A87
:107A60002020A047297D2120A04700210D20A047EC
:107A700000210E20A04700210F20A0473123EB5CFE
:107A8000122B3DD0FF2112202D4B984770E751015A
:107A9000891A890089189FE7FA2151439CE7FA2146
:107AA0004900514398E72A33D35C073B012BA6D802
:107AB00008210143C9B2ABE72433D35C073B012B58
:107AC0000FD93623194AD35C092BB7D131201B4B70
:107AD0009847802149420143C9B23120184B984749
:107AE000ACE73120154B98477F2101403120144CE1
:107AF000A04740212F20A04700213020A047E0E7E9
:107B000024330A4AD35C092B26D0032136200C4BA0
:107B100098473623054AD35C092B39D065213A2092
:107B2000074CA0471D213B20A047ABE76038002051
:107B3000750B0100957700000C95010015F9000008
:107B4000EDF80000CD4C0100093D00000048E801BF
:107B500000FFFF00000B070013681D4A99181D4A1B
:107B6000914207D8022136201B4CA04764213A20BD
:107B7000A047CEE7194A94466344194A9342C4D8B1
:107B800002213620144CA0477F213A20A047C0E7AD
:107B90001C33D35C012BC1D165213A200E4CA04788
:107BA00019213B20A0476DE7002127200A4B984769
:107BB000D7E60B200B4EB04704004D20B047F8210C
:107BC000014007200143DF231C400F275AE6C0462F
:107BD00080EC9ECC80E36A09EDF8000080E58FE739
:107BE000C0C2DA0615F90000F0B5C64600B50700B8
:107BF0000E00140098464020054DA8470440434617
:107C00001C413C700120A847307004BC9046F0BD78
:107C100015F9000010B5012807D0FF213E20054CC2
:107C2000A047FF213F20A04710BDFF211130014B8D
:107C30009847F9E7EDF8000030B583B06B469C1D1E
:107C40000623C022210068460730194DA847227834
:107C500053B2002B11DB6B4607331B78002B23D16B
:107C6000073313406A469371032B17D0052B18D0A6
:107C70000020104B984703B030BD6B4607331B788C
:107C8000002B05D0012B06D001200A4B9847F2E7C4
:107C9000094B9847EFE7094B9847ECE7084B9847A3
:107CA000E9E7084B9847E6E70020024B9847E2E7F0
:107CB000E97B0000157C0000658500006184000000
:107CC000E1840000E985000030B583B06B469C1D5F
:107CD00004233022210068460730174DA847227838
:107CE00053B2002B0CDB072313406A4693716A469C
:107CF00007321278002A14D0012A17D003B030BD01
:107D00006B4607331B78002B05D0012B06D00120D2
:107D10000A4B9847F2E70A4B9847EFE7094B984719
:107D2000ECE7052BEAD1084B9847E7E7032BE5D1B1
:107D3000064B9847E2E7C046E97B0000157C00004F
:107D4000E5830000590C010031820000F18200003F
:107D500030B583B06B469C1D02230C22210068467F
:107D60000730114DA847227853B2002B0CDB0723B4
:107D700013406A4693716A4607321278032A01D18A
:107D8000052B0DD003B030BD6B4607331B78022B9B
:107D900002D8064B9847F5E70120054B9847F1E7D5
:107DA000044B9847EEE7C046E97B0000590C010000
:107DB000157C00000182000030B583B06B469C1D2D
:107DC00000230322210068460730054DA847237889
:107DD0007F2B01D803B030BD0120024B9847F9E753
:107DE000E97B0000157C000030B583B06B469C1D1C
:107DF0000623C022210068460730054DA847237896
:107E00007F2B01D803B030BD0120024B9847F9E722
:107E1000E97B0000157C000030B583B06B469C1DEB
:107E200004233022210068460730054DA8472378F7
:107E30007F2B01D803B030BD0120024B9847F9E7F2
:107E4000E97B0000157C000010B584B01D4B4F226B
:107E5000995C0131C9B299540F3A9B5C8B4218D29C
:107E6000194A108880239B0003431380154C636CD0
:107E700058004B1E594389B2144B98474C23E0528B
:107E800000234F22A35463640120114B984704B090
:107E900010BD0E246C4420000E4B9847094B002265
:107EA000A15E4F229A5C4A43596C8C4662445A64E4
:107EB000996C5022985C00230093074B0022074CDA
:107EC000A047E4E760380020A0220020E14D010037
:107ED00009800000910D0100497E00003905010074
:107EE00070B582B0144B98470020144B9847144C3F
:107EF0002068144B984700254C23E55201220021AD
:107F00000020114EB047114B9847114B9847114B29
:107F1000984709211220104B984700220021052084
:107F2000B0475023E05C00950C4B00220C490D4CEF
:107F3000A047002002B070BD3D87000021830000F3
:107F40006038002095770000750B0100D1F9000022
:107F5000F1F9000011FA0000EDF80000497E000080
:107F6000282300003905010000B585B01A4A13889E
:107F70001A490B401380002200210020184B98471B
:107F8000184B9847184B9847184B98470020184BA8
:107F90009847184B9847184B4C229A5E3E215B5EDF
:107FA0009A4211DB072201AB1A700120134B98474C
:107FB000134B1B789B070CD50F4B1B69002B08D06C
:107FC00001A90220984704E002200C4B98470D4B72
:107FD0009847002005B000BDA0220020FFFDFFFF54
:107FE000750B0100C1F90000E1F9000001FA000081
:107FF000598300009588000060380020CD80000083
:10800000A42200205D8B000010B50400054B9847AA
:10801000054B188820431880044B98470220044BD6
:10802000984710BD05FB0000F400002011FB000084
:10803000510B010010B50400044B9847044A138803
:10804000A3431380034B984710BDC04605FB0000B7
:10805000F400002011FB000070B5174B1B889BB289
:10806000002B0FD0144B1B88DB070DD401221248C4
:10807000012103889BB214001341194205D101323A
:10808000052AF6D1002070BD00240C4B98470A4DFC
:108090002B880122A24093432B80094B9847A400D0
:1080A000084BE35898472B889BB2002BEAD002205C
:1080B000054B9847E6E7C046F400002005FB0000AA
:1080C00011FB000010950100510B0100014B1870CD
:1080D0007047C046A5220020014B1878C0B27047F7
:1080E000A5220020024A1378184310707047C0463A
:1080F000A422002070B504000F4B1B780420012B34
:1081000000D070BD0D4D2E33E85C0D4B98472378A1
:108110000C4A137061680C4A11603422AA5C002A70
:1081200002D102203F2BECD80222034B1A7004200C
:10813000064B98470020E4E7A52200206038002085
:10814000510801000C0100200801002009800000F6
:1081500070B50C00254B98475823254AD35C002B5B
:1081600018D1002C30D03E2C09D8224B196822009F
:108170000020214B984758231D4AD45424E01D4B1E
:1081800019683F2200201C4B98473F215823184A6A
:10819000D15419E05823164AD35CDBB29C4213D069
:1081A0005823D35CE31ADBB23F2B10D9104D58246F
:1081B0002B5D104A1168C9183F2200200E4B9847CA
:1081C0002B5D3F33DBB22B550C4B984770BD16002F
:1081D0005825535D525DA21AD2B206490968C918E2
:1081E0000020054B98477455EEE7C04679450000DE
:1081F000603800200801002041F90000B945000066
:1082000010B5084B98473423074AD35C002B05D19F
:10821000130000222C215A542C315A54034B9847F6
:1082200010BDC0467945000060380020B945000007
:1082300070B52A4B98472A4A2C23D35C5821525CAC
:10824000DBB2934219D02C23254AD35C002B1ED0DD
:10825000234A2C23D35C5821525C9B1ADBB23E2B61
:108260001BD91F4A2C23D35C5821525C9B1ADBB2CA
:108270003F2B24D81B4B984770BD2C23184AD35C46
:10828000002BE0D05823D35C002BDCD0F2E7012296
:1082900015490020154B9847DAE7114C5825615DC8
:1082A0002C26A25D635DD21AD2B2A36A9C466144B9
:1082B00000200E4B9847A35DDBB26355DAE7084C0C
:1082C0005825615DA36A9C4661443F220020074B0C
:1082D0009847635D3F33DBB26355CBE779450000D8
:1082E00060380020B94500008C38002081F900007A
:1082F00010B5034B1978034B1868034B984710BD12
:108300000C0100200801002051810000034B9A6AF3
:1083100002602C229B5C0B8000207047603800209C
:1083200010B50100084B1B68084A94466344084A8C
:108330000020934205D82423034AD35C581E83416E
:10834000581C044B984710BD6038002080EC9ECC30
:1083500080E36A094DFA000010B50100084B1B6864
:10836000084A94466344084A0020934205D82423CF
:10837000034AD35C581E8341581C044B984710BDD8
:108380006038002080EC9ECC80E36A0975FA00001A
:1083900010B5104B1B78042B04D00E4B1B78022B0E
:1083A0000CD010BD0C4A138820210B4313800020F1
:1083B0000A4B984702200A4B9847F2E7064A13886F
:1083C00010210B4313800120044B98470120044BDC
:1083D0009847E6E7A5220020A0220020598300004C
:1083E0000980000010B52F23094AD05C094B98473B
:1083F0000020094B984780211220084B9847084AD3
:10840000138840210B4313800220064B984710BD70
:10841000603800205108010059830000EDF8000089
:10842000A02200200980000010B52F23074AD05C4D
:10843000074B98470020074B9847074A138880212D
:108440000B4313800220054B984710BD6038002075
:108450005108010059830000A0220020098000007B
:1084600070B52F23144AD05C144B98470120144B4D
:10847000984708211220134B9847134B1B78022B67
:1084800003D0124B1B889B0615D4104A1388012178
:108490000B43138001200E4B98470E4B98470E4C10
:1084A00022686368801A9941FA22920000230B4DDA
:1084B000A8472060616070BD60380020510801004D
:1084C00059830000EDF80000A5220020A022002022
:1084D00009800000E104010000010020A950010012
:1084E00070B53F20154B9847030700D470BD2F236C
:1084F000134AD05C134B98470120134B9847134BFA
:108500001B78022B03D0124B1B889B06EED4114B19
:108510009847114C22686368801A9941FA229200A8
:1085200000230E4DA8472060616001200C4B984746
:10853000074A138804210B431380D7E715F900007D
:10854000603800205108010059830000A522002056
:10855000A0220020E104010000010020A950010038
:108560000980000070B51220184B98470400702154
:108570001220174B984750232340502B00D070BD3A
:10858000144D213BE85C144B98470020134B98474F
:108590001C200E4B98472323EB5C002B0DD0A30629
:1085A00001D4430609D40E4A118880235B000B4393
:1085B000138002200B4B9847E1E7094A13880221F8
:1085C0000B4313800220074B9847D8E715F90000AA
:1085D000EDF80000603800205108010059830000C8
:1085E000A02200200980000070B53F20494B984729
:1085F000430723D52323484AD35C012B1FD0464C85
:108600002F23E05C454DA8472E23E05CA8472100BE
:108610002C3101220020424DA8472C23E25CD2B22B
:10862000A16A0020A84700203E4B98473E4A138885
:1086300008210B43138002203C4B984770BD8307F1
:108640005ED514002F23D05C344DA8472E23E05C68
:10865000A847374B98472C23E35C5822A25CDBB237
:10866000934230D02C232C4AD35C002B35D0582396
:10867000294AD35C002B36D0274A2C23D35C5821BF
:10868000525C9B1A002B10DD234C5825615D2C2673
:10869000A25D635DD21AD2B2A36A9C4661440020F7
:1086A0001F4B9847A35DDBB26355224B98470020D0
:1086B0001C4B98471C4A138808210B431380022047
:1086C0001A4B9847BAE72C23134AD35C002BC9D026
:1086D0005823D35C002BC5D0E7E7012216490020C0
:1086E0000F4B9847C3E714002C25525DD2B2A16A04
:1086F00000200B4B9847635DDBB25822A354D4E7AC
:10870000094A118880235B000B4313800220074B2A
:10871000984793E715F900006038002051080100E0
:1087200081F9000059830000A02200200980000088
:1087300079450000B94500008C38002010B555235C
:10874000084AD35C002B00D010BD4B20064B984745
:1087500010210143C9B24B20044B9847044B984762
:10876000F2E7C0466038002015F90000EDF800007F
:1087700095FA000030B583B03C4B984700203C4B45
:1087800098473C4B1888002846D104303A4B98470C
:1087900034233A4AD35C012B41D0384C3823E15C76
:1087A0001220374DA8473923E15C1320A8470C213C
:1087B0004020A84700214120A8470023002156223D
:1087C000A1522A3AA3542C32A3542A4B1B88002BC3
:1087D00030D03423294AD35C012B33D0002200212E
:1087E0000520284B9847234B1B88FA2189005943C1
:1087F0002E23224AD05C00230093234B0022234CDB
:10880000A0471E4BD968002903D01A4B1B88002BA8
:108810001ED1002003B030BD174B9847B8E70121A7
:108820002220174CA04700214020A04700214120D2
:10883000A047CAE73433114AD15C00220520114B0E
:108840009847DEE70022012106200E4B9847D8E723
:10885000FA239B0059432F23084AD05C002300933E
:108860000B4B0022094CA047D3E7C0463D870000D0
:1088700021830000F8000020DD7700006038002030
:10888000EDF80000750B0100298400003905010096
:108890009183000010B55523034AD35C002B00D010
:1088A00010BD024B9847FBE760380020B1FA00008A
:1088B00070B501205F4B18705F4B604A1A60604AC8
:1088C0005A60604A9A6034215854072436229C54D6
:1088D000143A985411329854002226255A551E3DB8
:1088E0009D822D355C551C34185501341A550134C0
:1088F0001A559C345C765F359D76DC76913DA03CC4
:108900001D5519760021DA827D3511341D554E4CE6
:10891000DC607E3D37241D55093501341D55073572
:1089200001341D550D3C1955484C9C624C241A537A
:10893000023419555A64013419559A640F3C19557B
:108940009A87DA87413299541332995401329854F4
:1089500003329954283A9B5C002B1BD13C483D4B79
:108960009847082802D03C4B984721E03B48394BB8
:1089700098470828F7D13A48364B98470828F2D14B
:108980003848344B98470828EDD1012130232A4A32
:10899000D1540DE0284D2D23E85C334CA0472E2305
:1089A000E85CA0472F23E85CA0475023E85CA04781
:1089B0002E4B98472E4B9847002832D02D4B984786
:1089C0000122002101202C4B98471B4B18682B4B90
:1089D000984742213B202A4B98472A4D20243B2090
:1089E000A8470442FBD123210C20254CA047AA21F3
:1089F0001F20A047FF213220A04740213120A0475F
:108A00000122012100201C4B9847FF212320A04771
:108A100042201C4B98473123074AD0541A4B9847A1
:108A200070BD054C00225523E254184B984754233F
:108A3000E054C3E7A522002060380020A027BE3301
:108A4000A861000050C30000983A0000A021002057
:108A50008D38002005050100490401008E380020F2
:108A60008F380020B038002051080100ADF8000018
:108A700091FA00003D870000750B0100957700001A
:108A8000EDF8000015F90000958800008DFA00004F
:108A900070B504000378002B21D1274B1B780420EC
:108AA000012B00D070BD254D2E33E85C244B984738
:108AB0003423EB5C002B0CD06288224B1A800422FA
:108AC0001D4B1A700820204B9847204B98470020D8
:108AD000E8E72E33194AD05C194B9847ECE7164B60
:108AE0001B780020012BDDD0134B1B780330042BA7
:108AF000D8D1124C2B33E05C114B98473423E35C04
:108B0000002B12D034230D4AD15C00220020104BE0
:108B10009847104B98470122074B1A7008200E4CBB
:108B2000A0470220A0470020BCE72E33034AD05CB8
:108B3000034B9847E6E7C046A52200206038002096
:108B400051080100F8000020098000003D87000066
:108B5000750B01009588000035800000F0B587B0E6
:108B6000002203AB1A70694B9847694C2D23E05CD7
:108B7000684B98474123E35C002B36D103AB1B784D
:108B8000072B2FD00120644B98470420634B984754
:108B900034235F4AD35C012B00D188E000214020C0
:108BA0005F4CA04700214120A04700215823584A8C
:108BB000D1545C4D29780020A04729785A4B186879
:108BC0005A4B9847524C3423E15C00220320584B07
:108BD0009847584B9847584B18605960E1680029EE
:108BE00000D086E0002007B0F0BD494CA38FFA20EA
:108BF000800058433221514B984740256055434BE4
:108C000098470020444B984720684D4B98470022D6
:108C10004C23E252013200210020454EB047494B1F
:108C20009847494B9847494B9847092112203C4B9C
:108C30009847012200210520B047635D002B12D028
:108C40000024434D434F324E2800B8473E23F25E86
:108C500000216B5E9A420DDB0134E4B240232C4AC2
:108C6000D35CA342F0D83C4B98473C4B98473C4BD5
:108C7000984783E7384B9847384B9847384B984785
:108C80000020384B9847384B9847072203AB1A709F
:108C9000063A364B1A70364B1B789B07A2D51C4BF5
:108CA0001B69002B9ED003A90220984766E71D4D43
:108CB000297822201A4CA0470A202E4B9847F021F1
:108CC0000140082001430230A04740214020A04736
:108CD00000214120A04734230D4AD15C012201200C
:108CE000134B98472A78104B19680020224B98475D
:108CF00068E7FA239B0059432F23054AD05C0023E1
:108D000000931E4B00221E4CA0476BE73D870000DE
:108D1000603800205108010021830000DD77000049
:108D2000EDF800000C010020080100205181000036
:108D3000750B0100E104010000010020E14D01007C
:108D400095770000D1F90000F1F9000011FA000058
:108D5000F6000020910D0100C1F90000E1F90000CA
:108D600001FA00005983000095880000A522002028
:108D7000A422002015F9000041F9000091830000B1
:108D800039050100F0B585B0344B1B88DB060ED4E5
:108D9000324B1B88DB0735D4304B1B885B0731D443
:108DA0002E4B1B889B0555D4002005B0F0BD2B4AE7
:108DB000138810218B431380294C3427E15D012255
:108DC0000120284EB04701ABE268029200251D70D9
:108DD000E15D00220020B0470122234B1A70582386
:108DE000E554224B1B785B0704D4214B9847214B59
:108DF0009847D9E71A4B1B69002BF6D001A904202C
:108E00009847F2E7154B1A880126B2431A801A8850
:108E100004218A431A8001AB174A12680292002586
:108E20001D700F4C3423E15C002200200D4B98474D
:108E3000124B98470C4B1E705823E5540B4B1B7874
:108E40009B07B1D5064B1B69002BADD001A90220B1
:108E50009847A9E70A4B9847A6E7C046A0220020FA
:108E600060380020750B0100A5220020A4220020FC
:108E7000ADF80000B18800000001002095880000D6
:108E8000697F000070B584B0A74B1B889B0618D47F
:108E9000A54B1B885B063CD4A34B1B881B0638D410
:108EA000A14B1B889B075CD49F4B1B881B0700D5DD
:108EB000DFE09D4B1B88DB0500D506E1002004B0F8
:108EC00070BD994A138820218B431380974C342618
:108ED000A15D01220120964DA847A15D002200203E
:108EE000A847944B98470122934B1A70002301AA7C
:108EF00013702C22A3542C32A354904B1B781B07C5
:108F0000DCD58A4B1B69002BD8D001A908209847D3
:108F1000D4E7854B1A8840218A431A801A88403149
:108F20008A431A80814C3423E15C00220020804B6C
:108F30009847804B984701227F4B1A70002301AA63
:108F400013702C22A3542C32A3547C4B1B781B0788
:108F5000B4D5764B1B69002BB0D001A908209847E7
:108F6000ACE7714A138802218B4313801320744E9F
:108F7000B0476E4C2C25605500210D20714B984751
:108F8000625DD2B2A16A00206F4B98471920B047AA
:108F900040B2002821DB0006800E3223634AD05401
:108FA0001A20674B984702B232236049CB56002BF8
:108FB0001BDB5E4B1B6865495C1865498C4230D9E8
:108FC00064498C46634464498B4230D8A4381211FA
:108FD00080185623554AD05229E043421B069B0E67
:108FE0005B42322251498B54DAE70968574C0D191C
:108FF000574CA5420DD9574CA4466144564CA1424A
:1090000015D8A43B1B18101118185623474AD052E4
:109010000DE09D3B1818121180185623434AD05278
:1090200005E09D38121180185623404AD0523F4C1B
:109030003423E15C002200203D4B98473D4B98478C
:1090400001ABA26A02922C22A25C1A7200221A7050
:109050000132394B1A70394B1B78DB0700D42DE7EE
:10906000324B1B69002B00D128E701A9012098474A
:1090700024E72D4A138808218B4313802B4C802230
:109080003223E2540233E15C00220020284B98474F
:10909000284B984701ABA26A02922C22A25C1A725A
:1090A0000022582162541A700132234B1A70234B4C
:1090B0001B78DB0700D401E71C4B1B69002B00D198
:1090C000FCE601A901209847F8E6174A13882349CE
:1090D0000B401380154C2C25625DD2B2A16A002092
:1090E000194B98473423E15C00220020104B98472D
:1090F000104B984701ABA26A0292625D1A7200227D
:10910000582162541A7001320B4B1A700B4B1B78AA
:10911000DB0600D4D2E6054B1B69002B00D1CDE65F
:1091200001A910209847C9E6A0220020603800203D
:10913000750B010095880000A5220020A4220020C4
:1091400015F90000EDF8000081F9000080EC9ECCDC
:1091500080E36A0980E58FE7C0C2DA06FFFEFFFF01
:1091600010B50E480E4CA0470E48A0470E48A04729
:109170000E48A0470E48A0470E48A0470E48A047FB
:109180000E48A0470E48A0470E480F4CA0470F4876
:10919000A0470F48A0470F48A04710BDC495010045
:1091A000E984010034960100709601009896010050
:1091B000B8960100D4960100149701005097010061
:1091C0008C970100D497010005860100D897010013
:1091D000FC9701001C9801007047FFFF70B5040068
:1091E000002909D009480A4DA84721000948A84785
:1091F00009480A4B984770BD0948054DA84721000A
:109200000448A8470448054B9847F4E75C950100DB
:10921000E984010058950100EC99010005860100E0
:1092200038950100F8B52B4B1B781B0728D4294B28
:109230001B789B0729D01C212748284B9847254C91
:10924000617B2748274B984723785B0622D403216C
:109250002548224B98471F4B1B7B002B0CD000242A
:109260001C4D224E1F4FAB68195D3000B8470134CA
:10927000E4B22B7BA342F6D81D481E4B9847F8BD9D
:1092800009211D48154B9847D1E71A211B48134B5C
:109290009847D4E707211A48104B98470D4B1B7885
:1092A00007247F2B09D80B4F104E0E4D7B68195D9C
:1092B0003000A847013CF9D2C9E7064E73685978D7
:1092C0000A4D2800074CA047736819782800A0476A
:1092D000BDE7C046383400204098010009F5000081
:1092E00078980100E98401009098010088980100B5
:1092F000EC99010005860100349801005C9801009A
:10930000809801007047FFFF70B505000448054CC8
:10931000A04729000448A0470448054B984770BD62
:109320007C950100E98401005895010094950100A5
:109330000586010010B50248024B984710BDC04693
:10934000249501000586010010B59620C000014B50
:10935000984710BD4D4500007047FFFF10B5104BFA
:109360001B6ADB000ED40F4B1B780020002B00D0B3
:1093700010BD01220B4B1A700B4B98470B4B18601A
:109380000120F5E7084B9847084B1968084B9847A8
:10939000084B984202D90022024B1A700020E7E7DE
:1093A00000280040A8220020A9F20000AC220020E2
:1093B00009F30000FF3F000010B5024B9847002062
:1093C00010BDC046359F000010B5064B9847C31D21
:1093D000054A013819781170013B01328342F9D1F5
:1093E00010BDC046E50F01001400002070B5124BFF
:1093F0009847124B98470122114B1A70BFF35F8FA9
:1094000062B6104B9847104B9847104B9847104B3B
:10941000984700200F4B98470F4B98470F4B9847A2
:109420000F4B98470F4B98470F4B98470F4D104CD9
:10943000A847A047FCE7C0463D6B0000E1440000A0
:1094400008000020BDF30000C99300009D04010046
:10945000619100009911010019B80000D991000034
:10946000759C0000B19C0000D50A0100E50A0100CE
:10947000359F000010B514000A0001000648074B94
:1094800098470022064B1A70064B1878064B9847EF
:109490002000064B984710BDC8980100E9840100E0
:1094A000D8040020390300205108010025F10000F4
:1094B00010B5184B1A8843889A420DD08278C1782B
:1094C0001548164B9847164B1B78022B18D0144B97
:1094D0001878144B984710BD134B9847FA2040005A
:1094E000124B9847124B1878124B19780131C9B2B8
:1094F0001970114B984780221203104BDA61E2E792
:109500000F4B1B789B07E2D10D4B98680D4B98478A
:10951000DDE7C0463431002094980100E984010061
:109520002834002059930000259200004D4500008A
:1095300021010020200100200593000000280040A8
:10954000383400204993000010B5033103290BDDA6
:1095500003230022C45C121992B20133DBB28B42A6
:10956000F8DBD043C0B210BD0022FAE7F0B5DE460A
:10957000474680B58BB0D74B9847D74B1860012230
:10958000D64B1A70A9E20E21D548D64B9847D64B38
:109590001880AEE2D44B1B88012B0AD9022B12D8BB
:1095A000D24B9847CE4B9870CF4A13880133138023
:1095B00009E0CE4DA847CA4C6070A847A070CA4ABF
:1095C000138802331380C6494A7812028B781343FA
:1095D0001BB2C74A1380C44A12889B1A0333DBB2FA
:1095E000C44A13700022C44B1A800023BE4FBF4EE2
:1095F0000D003C88E418B0472855BF4A1388013352
:109600009BB21380BB4A127801329342F1DBB84B14
:109610001988B348B94B9847B94B18700022B64B1C
:109620001A800023AE4EB74DB74CF15C2800A0471E
:10963000B14A138801339BB21380AD4A1288111DC1
:109640008B42F2DB0A3AA84F3988B048AE4B9846B5
:109650009847A34CA64E3388E318DA78A84D2978AA
:10966000AB48C04700233B803388E418E2782B786E
:109670009A421BD10122A74B1A70A74B984A5179E5
:10968000D97191799971D1795971117A1971517A88
:10969000D970917A9970D17A5970127B1A70002220
:1096A0009E4B1A70012307930493FEE00022994B0E
:1096B0001A708B4B19000C31FF311A7001338B4239
:1096C000FBD10C22FF328C4B1A8012E213007A1865
:1096D000927B6A5419005A1CD2B28342F6DB904A3C
:1096E000137000238F4890495A1812791A54013385
:1096F000082BF9D18A4B1C708A4B1B78864A12784A
:109700009B1A9BB2894A1380002B49D1844B0122BA
:109710001A70012502210594079B069381487E4F0C
:1097200000E019002B5CEA5D9B1A9BB2002B32D142
:109730004B1CDBB201350691049A0592092BF0D13E
:10974000774B1970794B1C80794A13780133DBB25F
:1097500013705A460A3AD2B276490291049901919D
:109760000093754B75490820754FB847002823D0E2
:109770005B4B1A000C32FF321C7001339A42FBD152
:109780000C22FF325C4B1A80624B1C706D4A1378BE
:109790000133137033E0059A002A08D1634A13801D
:1097A000694B1C7069495C4B9F7807980DE05C4AD7
:1097B0006946097E1170F1E75D4A1378013B137029
:1097C0006348514B98471AE010008B78DB1B9BB223
:1097D00014280CD0421CD2B20431002BF4D1032245
:1097E0004F4B1A70514B1C80574B187007E00321E8
:1097F0004B4A11704D4A13801422534B1A70524B2E
:1098000019780139C9B21970394B1A880A3AD2B29B
:10981000474803780133DBB2037089004B480918CD
:1098200044480290049801900093434B0320444F16
:10983000B847002828D02A4B1A000C32FF321C707F
:1098400001339A42FBD10C22FF322B4B1A80314B51
:109850001C703C4A1378013313703E4B1B78002B6D
:109860001AD043461E703B4B1E702D4B1E70204B72
:109870001B889B4618000A38002800DC31E7079B4C
:1098800021002D4D164F22E7294A1378013B137012
:109890002F481D4B9847E0E72F4B98472F4B984791
:1098A0002F4B1B78002B00D123E12D4B9846002431
:1098B000261CD6E72B4B1B78012B55D00123254ABC
:1098C00013700021154A1170254A13701500214CA0
:1098D000B5E0C046A9F20000BC220020C022002052
:1098E0002C02002035F5000024010020C9F50000FD
:1098F0002A020020220100202802002049950000B1
:109900002301002088980100E9840100F0980100FB
:10991000349901003803002010010020B8220020F3
:10992000B922002018010020D02F0020BA220020E8
:10993000370300207594000028010020D42F002058
:10994000F1D5000021010020B0220020D8330020F2
:109950006899010009000020E5E00000E50A010027
:10996000B12200202834002001225242153304A9DC
:109970008C4663441A80E020714B9847031E00D147
:10998000D9E000216F4A1170002042251400421CCA
:10999000D2B21D5421780131C9B221701000D929E9
:1099A000F5D9694801780131C9B201706748029060
:1099B000012001900091162104A8844661440220F0
:1099C000634CA047002800D09AE0624B984797E08C
:1099D0000023614A1370614A1370DF30584B984777
:1099E000031E00D1A7E00021564A11700026552021
:1099F0001700721CD2B2985539780131C9B239704A
:109A00001600D929F5D95649097856480078884270
:109A10001CD04D4E30780130C0B230708900524EAB
:109A200089194A4E02960126019600900320484E5D
:109A3000B047002827D04D4A1378013313702B7894
:109A4000002B5DD001232370494E32E03E4801785F
:109A50000131C9B201703D4802900120019000918E
:109A6000444907303A4EB047002804D03F4A1378A3
:109A700001331370E3E7344A1378013B13703E4817
:109A80003E4B9847DBE7304A1378013B13703A4866
:109A90003A4B9847D3E70132314B1A7000222F4BD3
:109AA0001A70374B9847374B98472C4B1B78002B35
:109AB000C5D0B04701288BD00228F2D1284B1A78A4
:109AC000314B1B78013B9A42E5DD0022244B1A7092
:109AD000E4E72E4B1B78002B2DD0294B9847294BC0
:109AE00098472B4B1B78002B00D14CE57E2B00D1E7
:109AF00050E51F4B9847431EDBB2012B00D8D9E637
:109B0000244B9847244B1860244B1968244B9847E2
:109B1000244B9842DDD9244B1B78012BD9D1FA2054
:109B20004000224B98470022184B1A701E4B1878A1
:109B30001F4B9847CDE70BB00CBC90469B46F0BD41
:109B400069F00000B922002037030020759400005E
:109B5000F1D5000035930000B1220020090000205B
:109B6000B822002028310020D83300202101002015
:109B70005D930000D42F002068990100E984010062
:109B8000E5E00000E50A0100E1040020C022002019
:109B90002C020020A9F20000B4220020BC220020E8
:109BA00009F3000000879303283400204D4500008E
:109BB0005993000010B5002801D0062802D10248B0
:109BC000024B984710BDC046E0990100E9840100AE
:109BD00010B584B00E226A4401235B421380054B0A
:109BE0001878054B009300230021044CA04704B0D3
:109BF00010BDC0460D000020B59B0000C5EE000062
:109C000010B5040001001148114B9847002C01D0F9
:109C1000062C13D1802212030E4B5A610E4B1B7877
:109C2000012B0CD00D4B187801210D4B9847FF20CC
:109C30000C4B9847084B18780B4B984710BD0B4BB3
:109C400019780B48024B9847F1E7C0468C99010000
:109C5000E984010000280040283400200D00002085
:109C6000DD9100001DD90000599300001100002073
:109C7000AC99010070B50A4CA0470500A047290027
:109C8000084B9847084A0023904201D9180070BD3C
:109C9000064B9847013843424341DBB2F6E7C046E2
:109CA000A9F2000009F3000000093D005D930000E7
:109CB000F0B5CE46474680B587B004007748784B6C
:109CC00098477848784B9847002C45D000210020D1
:109CD000764B9847764B9847764B9847002200235F
:109CE00004920593744E0832310004A8734DA847BE
:109CF000040001225242D317049205930932310025
:109D000004A8A84700281AD0002C18D06A486C4B29
:109D100098476C4B1B78022B1BD06A4B18786A4B08
:109D20009847684B1B78012B00D1B2E06748684B1D
:109D30009847012007B00CBC90469946F0BD5E4C98
:109D400026000836634DA84720700134B442FAD18A
:109D5000DCE7614B9847E0E7802212035F4B9A6192
:109D600000210020514B98470A276F4414233B7071
:109D70000B256D440B3B2B7003AC023B23700D266F
:109D80006E44002333701420554B9847390004204B
:109D9000544B9846984731000820C04729001620A8
:109DA000514B9946984729001620504B98469847A2
:109DB00021000720C84721000720C0474C484D4BD1
:109DC000984698474C48C04739784C484C4FB8475C
:109DD00031784C48B84729784B48B84721784B48E8
:109DE000B8474348C047324B9847324B9847002208
